{"abi":[{"type":"constructor","inputs":[],"stateMutability":"nonpayable"},{"type":"function","name":"acceptTreasury","inputs":[],"outputs":[],"stateMutability":"nonpayable"},{"type":"function","name":"administrator","inputs":[],"outputs":[{"name":"","type":"address","internalType":"address"}],"stateMutability":"view"},{"type":"function","name":"cancelRedemption","inputs":[{"name":"vault","type":"address","internalType":"address"},{"name":"queueIndex","type":"uint256","internalType":"uint256"}],"outputs":[],"stateMutability":"nonpayable"},{"type":"function","name":"contracts","inputs":[],"outputs":[{"name":"registry","type":"address","internalType":"contract Registry"},{"name":"featureRegistry","type":"address","internalType":"contract IFeatureRegistry"},{"name":"navContract","type":"address","internalType":"contract NAV"},{"name":"priceOracle","type":"address","internalType":"contract IPriceOracle"}],"stateMutability":"view"},{"type":"function","name":"convertVaultAssetsToShares","inputs":[{"name":"vault","type":"address","internalType":"address"},{"name":"assets","type":"uint256","internalType":"uint256"}],"outputs":[{"name":"shares","type":"uint256","internalType":"uint256"}],"stateMutability":"view"},{"type":"function","name":"convertVaultSharesToAssets","inputs":[{"name":"vault","type":"address","internalType":"address"},{"name":"shares","type":"uint256","internalType":"uint256"}],"outputs":[{"name":"assets","type":"uint256","internalType":"uint256"}],"stateMutability":"view"},{"type":"function","name":"deposit","inputs":[{"name":"vault","type":"address","internalType":"address"},{"name":"asset","type":"address","internalType":"address"},{"name":"amount","type":"uint256","internalType":"uint256"},{"name":"receiver","type":"address","internalType":"address"},{"name":"minShares","type":"uint256","internalType":"uint256"},{"name":"referralCode","type":"bytes32","internalType":"bytes32"}],"outputs":[{"name":"shares","type":"uint256","internalType":"uint256"}],"stateMutability":"nonpayable"},{"type":"function","name":"disableAsset","inputs":[{"name":"vault","type":"address","internalType":"address"},{"name":"asset","type":"address","internalType":"address"}],"outputs":[],"stateMutability":"nonpayable"},{"type":"function","name":"getNAV","inputs":[{"name":"vault","type":"address","internalType":"address"}],"outputs":[{"name":"","type":"uint256","internalType":"uint256"}],"stateMutability":"view"},{"type":"function","name":"getRedemptionQueueEntry","inputs":[{"name":"vault","type":"address","internalType":"address"},{"name":"queueIndex","type":"uint256","internalType":"uint256"}],"outputs":[{"name":"entry","type":"tuple","internalType":"struct Manager.RedemptionQueueEntry","components":[{"name":"owner","type":"address","internalType":"address"},{"name":"receiver","type":"address","internalType":"address"},{"name":"lockedShares","type":"uint256","internalType":"uint256"},{"name":"navAtRequest","type":"uint256","internalType":"uint256"},{"name":"timestamp","type":"uint256","internalType":"uint256"}]}],"stateMutability":"view"},{"type":"function","name":"getRedemptionQueueLength","inputs":[{"name":"vault","type":"address","internalType":"address"}],"outputs":[{"name":"length","type":"uint256","internalType":"uint256"}],"stateMutability":"view"},{"type":"function","name":"getStandardDebt","inputs":[{"name":"vault","type":"address","internalType":"address"}],"outputs":[{"name":"debt","type":"uint256","internalType":"uint256"}],"stateMutability":"view"},{"type":"function","name":"getVaultAsset","inputs":[{"name":"vault","type":"address","internalType":"address"}],"outputs":[{"name":"asset","type":"address","internalType":"address"}],"stateMutability":"view"},{"type":"function","name":"initialize","inputs":[{"name":"administrator_","type":"address","internalType":"address"},{"name":"registry_","type":"address","internalType":"address"},{"name":"featureRegistry_","type":"address","internalType":"address"},{"name":"navContract_","type":"address","internalType":"address"},{"name":"priceOracle_","type":"address","internalType":"address"}],"outputs":[],"stateMutability":"nonpayable"},{"type":"function","name":"isBlacklisted","inputs":[{"name":"user","type":"address","internalType":"address"}],"outputs":[{"name":"blacklisted","type":"bool","internalType":"bool"}],"stateMutability":"view"},{"type":"function","name":"isVault","inputs":[{"name":"vault","type":"address","internalType":"address"}],"outputs":[{"name":"isRegistered","type":"bool","internalType":"bool"}],"stateMutability":"view"},{"type":"function","name":"isVaultPaused","inputs":[{"name":"vault","type":"address","internalType":"address"}],"outputs":[{"name":"paused","type":"bool","internalType":"bool"}],"stateMutability":"view"},{"type":"function","name":"isWhitelisted","inputs":[{"name":"vault","type":"address","internalType":"address"},{"name":"asset","type":"address","internalType":"address"}],"outputs":[{"name":"isWhitelisted","type":"bool","internalType":"bool"}],"stateMutability":"view"},{"type":"function","name":"maxNavChangePercent","inputs":[],"outputs":[{"name":"","type":"uint256","internalType":"uint256"}],"stateMutability":"view"},{"type":"function","name":"nextQueueIndex","inputs":[{"name":"vault","type":"address","internalType":"address"}],"outputs":[{"name":"nextQueueIndex","type":"uint256","internalType":"uint256"}],"stateMutability":"view"},{"type":"function","name":"paused","inputs":[],"outputs":[{"name":"isPaused","type":"bool","internalType":"bool"}],"stateMutability":"view"},{"type":"function","name":"pendingTreasury","inputs":[],"outputs":[{"name":"","type":"address","internalType":"address"}],"stateMutability":"view"},{"type":"function","name":"processRedemption","inputs":[{"name":"vault","type":"address","internalType":"address"},{"name":"queueIndex","type":"uint256","internalType":"uint256"},{"name":"gasFeeShares","type":"uint256","internalType":"uint256"}],"outputs":[],"stateMutability":"nonpayable"},{"type":"function","name":"redemptionQueues","inputs":[{"name":"vault","type":"address","internalType":"address"},{"name":"queueIndex","type":"uint256","internalType":"uint256"}],"outputs":[{"name":"owner","type":"address","internalType":"address"},{"name":"receiver","type":"address","internalType":"address"},{"name":"lockedShares","type":"uint256","internalType":"uint256"},{"name":"navAtRequest","type":"uint256","internalType":"uint256"},{"name":"timestamp","type":"uint256","internalType":"uint256"}],"stateMutability":"view"},{"type":"function","name":"requestRedemption","inputs":[{"name":"vault","type":"address","internalType":"address"},{"name":"shares","type":"uint256","internalType":"uint256"},{"name":"owner","type":"address","internalType":"address"},{"name":"receiver","type":"address","internalType":"address"}],"outputs":[],"stateMutability":"nonpayable"},{"type":"function","name":"rescueTokens","inputs":[{"name":"token","type":"address","internalType":"address"},{"name":"to","type":"address","internalType":"address"},{"name":"amount","type":"uint256","internalType":"uint256"}],"outputs":[],"stateMutability":"nonpayable"},{"type":"function","name":"setAdministrator","inputs":[{"name":"_administrator","type":"address","internalType":"address"}],"outputs":[],"stateMutability":"nonpayable"},{"type":"function","name":"setAssetWhitelist","inputs":[{"name":"vault","type":"address","internalType":"address"},{"name":"asset","type":"address","internalType":"address"},{"name":"status","type":"bool","internalType":"bool"}],"outputs":[],"stateMutability":"nonpayable"},{"type":"function","name":"setContracts","inputs":[{"name":"registry_","type":"address","internalType":"address"},{"name":"featureRegistry_","type":"address","internalType":"address"},{"name":"navContract_","type":"address","internalType":"address"},{"name":"priceOracle_","type":"address","internalType":"address"}],"outputs":[],"stateMutability":"nonpayable"},{"type":"function","name":"setMaxNavChangePercent","inputs":[{"name":"maxNavChangePercent_","type":"uint256","internalType":"uint256"}],"outputs":[],"stateMutability":"nonpayable"},{"type":"function","name":"setPriceOracle","inputs":[{"name":"priceOracle_","type":"address","internalType":"address"}],"outputs":[],"stateMutability":"nonpayable"},{"type":"function","name":"setTreasury","inputs":[{"name":"treasury_","type":"address","internalType":"address"}],"outputs":[],"stateMutability":"nonpayable"},{"type":"function","name":"standardDebt","inputs":[{"name":"vault","type":"address","internalType":"address"}],"outputs":[{"name":"standardDebt","type":"uint256","internalType":"uint256"}],"stateMutability":"view"},{"type":"function","name":"totalAssets","inputs":[{"name":"vault","type":"address","internalType":"address"}],"outputs":[{"name":"","type":"uint256","internalType":"uint256"}],"stateMutability":"view"},{"type":"function","name":"treasury","inputs":[],"outputs":[{"name":"","type":"address","internalType":"address"}],"stateMutability":"view"},{"type":"function","name":"updateNav","inputs":[{"name":"vault","type":"address","internalType":"address"},{"name":"newNav","type":"uint256","internalType":"uint256"},{"name":"vestingEndTime","type":"uint256","internalType":"uint256"},{"name":"managementFee","type":"uint256","internalType":"uint256"},{"name":"performanceFee","type":"uint256","internalType":"uint256"}],"outputs":[],"stateMutability":"nonpayable"},{"type":"event","name":"AdministratorSet","inputs":[{"name":"caller","type":"address","indexed":true,"internalType":"address"},{"name":"newAdministrator","type":"address","indexed":true,"internalType":"address"}],"anonymous":false},{"type":"event","name":"AssetFeeConfigUpdated","inputs":[{"name":"vault","type":"address","indexed":true,"internalType":"address"},{"name":"asset","type":"address","indexed":true,"internalType":"address"},{"name":"depositFee","type":"uint256","indexed":false,"internalType":"uint256"},{"name":"redemptionFee","type":"uint256","indexed":false,"internalType":"uint256"}],"anonymous":false},{"type":"event","name":"AssetWhitelisted","inputs":[{"name":"vault","type":"address","indexed":true,"internalType":"address"},{"name":"asset","type":"address","indexed":true,"internalType":"address"},{"name":"status","type":"bool","indexed":false,"internalType":"bool"}],"anonymous":false},{"type":"event","name":"BaseAssetUpdated","inputs":[{"name":"vault","type":"address","indexed":true,"internalType":"address"},{"name":"oldBaseAsset","type":"address","indexed":true,"internalType":"address"},{"name":"newBaseAsset","type":"address","indexed":true,"internalType":"address"}],"anonymous":false},{"type":"event","name":"ContractsSet","inputs":[{"name":"registry","type":"address","indexed":true,"internalType":"address"},{"name":"featureRegistry","type":"address","indexed":true,"internalType":"address"},{"name":"navContract","type":"address","indexed":true,"internalType":"address"},{"name":"priceOracle","type":"address","indexed":false,"internalType":"address"}],"anonymous":false},{"type":"event","name":"CuratorUpdated","inputs":[{"name":"vault","type":"address","indexed":true,"internalType":"address"},{"name":"oldCurator","type":"address","indexed":true,"internalType":"address"},{"name":"newCurator","type":"address","indexed":true,"internalType":"address"}],"anonymous":false},{"type":"event","name":"Deposit","inputs":[{"name":"vault","type":"address","indexed":true,"internalType":"address"},{"name":"asset","type":"address","indexed":true,"internalType":"address"},{"name":"sender","type":"address","indexed":true,"internalType":"address"},{"name":"receiver","type":"address","indexed":false,"internalType":"address"},{"name":"assets","type":"uint256","indexed":false,"internalType":"uint256"},{"name":"shares","type":"uint256","indexed":false,"internalType":"uint256"},{"name":"feeShares","type":"uint256","indexed":false,"internalType":"uint256"},{"name":"referralCode","type":"bytes32","indexed":false,"internalType":"bytes32"}],"anonymous":false},{"type":"event","name":"DepositRecipientPending","inputs":[{"name":"vault","type":"address","indexed":true,"internalType":"address"},{"name":"pendingDepositRecipient","type":"address","indexed":true,"internalType":"address"}],"anonymous":false},{"type":"event","name":"DepositRecipientUpdated","inputs":[{"name":"vault","type":"address","indexed":true,"internalType":"address"},{"name":"oldDepositRecipient","type":"address","indexed":true,"internalType":"address"},{"name":"newDepositRecipient","type":"address","indexed":true,"internalType":"address"}],"anonymous":false},{"type":"event","name":"FeatureDisabled","inputs":[{"name":"vault","type":"address","indexed":true,"internalType":"address"},{"name":"featureId","type":"bytes32","indexed":true,"internalType":"bytes32"}],"anonymous":false},{"type":"event","name":"FeatureEnabled","inputs":[{"name":"vault","type":"address","indexed":true,"internalType":"address"},{"name":"featureId","type":"bytes32","indexed":true,"internalType":"bytes32"}],"anonymous":false},{"type":"event","name":"FeatureInitialized","inputs":[{"name":"vault","type":"address","indexed":true,"internalType":"address"},{"name":"featureId","type":"bytes32","indexed":true,"internalType":"bytes32"}],"anonymous":false},{"type":"event","name":"FeeReceiverPending","inputs":[{"name":"vault","type":"address","indexed":true,"internalType":"address"},{"name":"pendingFeeReceiver","type":"address","indexed":true,"internalType":"address"}],"anonymous":false},{"type":"event","name":"FeeReceiverUpdated","inputs":[{"name":"vault","type":"address","indexed":true,"internalType":"address"},{"name":"oldFeeReceiver","type":"address","indexed":true,"internalType":"address"},{"name":"newFeeReceiver","type":"address","indexed":true,"internalType":"address"}],"anonymous":false},{"type":"event","name":"FeeTransferred","inputs":[{"name":"vault","type":"address","indexed":true,"internalType":"address"},{"name":"feeReceiver","type":"address","indexed":true,"internalType":"address"},{"name":"feeShares","type":"uint256","indexed":false,"internalType":"uint256"},{"name":"feeType","type":"uint8","indexed":false,"internalType":"enum IEvents.FeeType"},{"name":"asset","type":"address","indexed":false,"internalType":"address"}],"anonymous":false},{"type":"event","name":"FeesClawedBack","inputs":[{"name":"vault","type":"address","indexed":true,"internalType":"address"},{"name":"feeType","type":"uint8","indexed":true,"internalType":"uint8"},{"name":"treasury","type":"address","indexed":true,"internalType":"address"},{"name":"shares","type":"uint256","indexed":false,"internalType":"uint256"}],"anonymous":false},{"type":"event","name":"Initialized","inputs":[{"name":"version","type":"uint64","indexed":false,"internalType":"uint64"}],"anonymous":false},{"type":"event","name":"MaxNavChangePercentUpdated","inputs":[{"name":"maxNavChangePercent","type":"uint256","indexed":false,"internalType":"uint256"}],"anonymous":false},{"type":"event","name":"NAVUpdated","inputs":[{"name":"vault","type":"address","indexed":true,"internalType":"address"},{"name":"newNav","type":"uint256","indexed":true,"internalType":"uint256"},{"name":"vestingEndTime","type":"uint256","indexed":false,"internalType":"uint256"},{"name":"managementFee","type":"uint256","indexed":false,"internalType":"uint256"},{"name":"performanceFee","type":"uint256","indexed":false,"internalType":"uint256"}],"anonymous":false},{"type":"event","name":"NameAndSymbolUpdated","inputs":[{"name":"vault","type":"address","indexed":true,"internalType":"address"},{"name":"oldName","type":"string","indexed":false,"internalType":"string"},{"name":"oldSymbol","type":"string","indexed":false,"internalType":"string"},{"name":"newName","type":"string","indexed":false,"internalType":"string"},{"name":"newSymbol","type":"string","indexed":false,"internalType":"string"}],"anonymous":false},{"type":"event","name":"PriceOracleSet","inputs":[{"name":"priceOracle","type":"address","indexed":true,"internalType":"address"}],"anonymous":false},{"type":"event","name":"RedemptionCancelled","inputs":[{"name":"vault","type":"address","indexed":true,"internalType":"address"},{"name":"user","type":"address","indexed":true,"internalType":"address"},{"name":"queueIndex","type":"uint256","indexed":true,"internalType":"uint256"}],"anonymous":false},{"type":"event","name":"RedemptionEnabled","inputs":[{"name":"vault","type":"address","indexed":true,"internalType":"address"},{"name":"enabled","type":"bool","indexed":false,"internalType":"bool"}],"anonymous":false},{"type":"event","name":"RedemptionProcessed","inputs":[{"name":"vault","type":"address","indexed":true,"internalType":"address"},{"name":"user","type":"address","indexed":true,"internalType":"address"},{"name":"receiver","type":"address","indexed":true,"internalType":"address"},{"name":"queueIndex","type":"uint256","indexed":false,"internalType":"uint256"},{"name":"assets","type":"uint256","indexed":false,"internalType":"uint256"},{"name":"effectiveNav","type":"uint256","indexed":false,"internalType":"uint256"},{"name":"burnShares","type":"uint256","indexed":false,"internalType":"uint256"},{"name":"gasFeeShares","type":"uint256","indexed":false,"internalType":"uint256"}],"anonymous":false},{"type":"event","name":"RedemptionRequested","inputs":[{"name":"vault","type":"address","indexed":true,"internalType":"address"},{"name":"user","type":"address","indexed":true,"internalType":"address"},{"name":"queueIndex","type":"uint256","indexed":true,"internalType":"uint256"},{"name":"shares","type":"uint256","indexed":false,"internalType":"uint256"}],"anonymous":false},{"type":"event","name":"RedemptionSourceUpdated","inputs":[{"name":"vault","type":"address","indexed":true,"internalType":"address"},{"name":"oldRedemptionSource","type":"address","indexed":true,"internalType":"address"},{"name":"newRedemptionSource","type":"address","indexed":true,"internalType":"address"}],"anonymous":false},{"type":"event","name":"SharesLocked","inputs":[{"name":"vault","type":"address","indexed":true,"internalType":"address"},{"name":"user","type":"address","indexed":true,"internalType":"address"},{"name":"amount","type":"uint256","indexed":false,"internalType":"uint256"}],"anonymous":false},{"type":"event","name":"SharesUnlocked","inputs":[{"name":"vault","type":"address","indexed":true,"internalType":"address"},{"name":"user","type":"address","indexed":true,"internalType":"address"},{"name":"amount","type":"uint256","indexed":false,"internalType":"uint256"}],"anonymous":false},{"type":"event","name":"TokensRescued","inputs":[{"name":"token","type":"address","indexed":true,"internalType":"address"},{"name":"to","type":"address","indexed":true,"internalType":"address"},{"name":"amount","type":"uint256","indexed":false,"internalType":"uint256"}],"anonymous":false},{"type":"event","name":"TransactionFeeStored","inputs":[{"name":"vault","type":"address","indexed":true,"internalType":"address"},{"name":"shares","type":"uint256","indexed":false,"internalType":"uint256"},{"name":"totalStored","type":"uint256","indexed":false,"internalType":"uint256"}],"anonymous":false},{"type":"event","name":"TransactionFeesWithdrawn","inputs":[{"name":"vault","type":"address","indexed":true,"internalType":"address"},{"name":"recipient","type":"address","indexed":true,"internalType":"address"},{"name":"transactionFeeShares","type":"uint256","indexed":false,"internalType":"uint256"}],"anonymous":false},{"type":"event","name":"TreasuryPending","inputs":[{"name":"pendingTreasury","type":"address","indexed":true,"internalType":"address"}],"anonymous":false},{"type":"event","name":"TreasuryUpdated","inputs":[{"name":"treasury","type":"address","indexed":true,"internalType":"address"}],"anonymous":false},{"type":"event","name":"VaultFeesConfigured","inputs":[{"name":"vault","type":"address","indexed":true,"internalType":"address"},{"name":"managementFee","type":"uint256","indexed":false,"internalType":"uint256"},{"name":"performanceFee","type":"uint256","indexed":false,"internalType":"uint256"}],"anonymous":false},{"type":"event","name":"VaultPaused","inputs":[{"name":"vault","type":"address","indexed":true,"internalType":"address"},{"name":"curator","type":"address","indexed":true,"internalType":"address"}],"anonymous":false},{"type":"event","name":"VaultRegistered","inputs":[{"name":"vault","type":"address","indexed":true,"internalType":"address"},{"name":"depositRecipient","type":"address","indexed":true,"internalType":"address"},{"name":"redemptionSource","type":"address","indexed":true,"internalType":"address"},{"name":"feeReceiver","type":"address","indexed":false,"internalType":"address"},{"name":"curator","type":"address","indexed":false,"internalType":"address"},{"name":"baseAsset","type":"address","indexed":false,"internalType":"address"},{"name":"managementFee","type":"uint256","indexed":false,"internalType":"uint256"},{"name":"performanceFee","type":"uint256","indexed":false,"internalType":"uint256"}],"anonymous":false},{"type":"event","name":"VaultUnpaused","inputs":[{"name":"vault","type":"address","indexed":true,"internalType":"address"},{"name":"operator","type":"address","indexed":true,"internalType":"address"}],"anonymous":false},{"type":"event","name":"VaultUnregistered","inputs":[{"name":"vault","type":"address","indexed":true,"internalType":"address"}],"anonymous":false},{"type":"error","name":"AddressBlacklisted","inputs":[{"name":"user","type":"address","internalType":"address"}]},{"type":"error","name":"ArithmeticOverflow","inputs":[]},{"type":"error","name":"ArithmeticUnderflow","inputs":[]},{"type":"error","name":"AssetNotWhitelisted","inputs":[{"name":"vault","type":"address","internalType":"address"},{"name":"asset","type":"address","internalType":"address"}]},{"type":"error","name":"ContractPaused","inputs":[{"name":"contractAddress","type":"address","internalType":"address"}]},{"type":"error","name":"DivisionByZero","inputs":[]},{"type":"error","name":"ExcessiveDeviation","inputs":[{"name":"operationType","type":"bytes32","internalType":"bytes32"},{"name":"deviation","type":"uint256","internalType":"uint256"},{"name":"maxAllowed","type":"uint256","internalType":"uint256"}]},{"type":"error","name":"InsufficientBalance","inputs":[{"name":"available","type":"uint256","internalType":"uint256"},{"name":"required","type":"uint256","internalType":"uint256"}]},{"type":"error","name":"InsufficientShares","inputs":[{"name":"available","type":"uint256","internalType":"uint256"},{"name":"required","type":"uint256","internalType":"uint256"}]},{"type":"error","name":"InvalidInitialization","inputs":[]},{"type":"error","name":"InvalidOraclePrice","inputs":[{"name":"asset","type":"address","internalType":"address"},{"name":"baseAsset","type":"address","internalType":"address"},{"name":"reason","type":"string","internalType":"string"}]},{"type":"error","name":"InvalidQueueIndex","inputs":[{"name":"queueIndex","type":"uint256","internalType":"uint256"}]},{"type":"error","name":"InvalidTime","inputs":[{"name":"time","type":"uint256","internalType":"uint256"}]},{"type":"error","name":"NavNotInitialized","inputs":[{"name":"vault","type":"address","internalType":"address"}]},{"type":"error","name":"NotContract","inputs":[{"name":"account","type":"address","internalType":"address"}]},{"type":"error","name":"NotInitializing","inputs":[]},{"type":"error","name":"NotOnGreenlist","inputs":[{"name":"user","type":"address","internalType":"address"}]},{"type":"error","name":"RedemptionsDisabledForVault","inputs":[{"name":"vault","type":"address","internalType":"address"}]},{"type":"error","name":"ReentrancyGuardReentrantCall","inputs":[]},{"type":"error","name":"SafeERC20FailedOperation","inputs":[{"name":"token","type":"address","internalType":"address"}]},{"type":"error","name":"SameAddress","inputs":[]},{"type":"error","name":"TransferFailed","inputs":[]},{"type":"error","name":"Unauthorized","inputs":[{"name":"caller","type":"address","internalType":"address"},{"name":"requiredRole","type":"bytes32","internalType":"bytes32"}]},{"type":"error","name":"UnauthorizedCaller","inputs":[]},{"type":"error","name":"VaultNotRegistered","inputs":[{"name":"vault","type":"address","internalType":"address"}]},{"type":"error","name":"VaultPaused","inputs":[{"name":"vault","type":"address","internalType":"address"}]},{"type":"error","name":"ZeroAddress","inputs":[]},{"type":"error","name":"ZeroAmount","inputs":[]},{"type":"error","name":"ZeroNAV","inputs":[]}],"bytecode":{"object":"0x60808060405234620000bd577ff0c57e16840df040f15088dc2f81fe391c3923bec73e23a9662efc9c229c6a009081549060ff8260401c16620000ae57506001600160401b036002600160401b03198282160162000068575b604051613f979081620000c28239f35b6001600160401b031990911681179091556040519081527fc7f505b2f371ae2175ee4913f4499e1f2633a7b5936321eed1cdaeb6115181d290602090a15f808062000058565b63f92ee8a960e01b8152600490fd5b5f80fdfe6080806040526004361015610012575f80fd5b5f905f3560e01c9081631459457a14612e5f57508063179ddcdd14612dd45780632ed6b75d14612dac5780633171725d146126555780633cdbbbf3146125b7578063530e784f146125465780635c69c059146101da5780635c975abb1461252b57806361d027b31461250257806362b22f2e1461248e578063635403f614612179578063652b9b41146121175780636a4fd5ec14611a295780636b532616146108a85780636c0f79b6146119e15780636d40ba13146119b95780637bd821dd1461199b578063886d63f4146118ec5780638c436aea14611845578063aa5372241461181d578063abde088d14611745578063b6b35272146116f3578063b6db2b3814610e56578063bf989b6e14610d33578063ca9d67c814610cb0578063cea9d26f14610a41578063df8089ef14610967578063e49d2a30146108e1578063e5030fa8146108a8578063f0f4426014610837578063f37d1683146102b4578063f3e0ffbf14610288578063f470abab1461023a578063f53d0a8e14610213578063fd3a96ad146101da5763fe575a87146101aa575f80fd5b346101d75760203660031901126101d75760206101cd6101c86130e8565b61368a565b6040519015158152f35b80fd5b50346101d75760203660031901126101d7576020906040906001600160a01b036102026130e8565b168152600a83522054604051908152f35b50346101d757806003193601126101d757546040516001600160a01b039091168152602090f35b50346101d75760203660031901126101d7577faa078ba37f4d95f2225a8ef605ca310032c20230485bdd60ed41f0750a224de7602060043561027a61370c565b80600b55604051908152a180f35b50346101d75760203660031901126101d75760206102ac6102a76130e8565b6135bb565b604051908152f35b50346101d75760603660031901126101d7576102ce6130e8565b602460443581356102dd61370c565b6102e561341b565b506102ef846136d7565b60018060a01b03908160015416926040519563105a88e360e01b87528381169485600489015260209788818981855afa9081156107df575f91610802575b50156107ea578787916040519283809263a30bd4db60e01b82528a60048301525afa9081156107df575f916107a6575b5061078e57845f526008875260405f20835f52875260405f20906040519661038488613182565b85835416988989528660018501541698818101998a5260028501549a604082019b8c5260046003870154966060840197885201546080830152156107765787816103d18280945116613c1f565b6103dd828d5116613c1f565b511699511699519351966103f96103f3856138d5565b94613a64565b93909887871061075957908d929161041189896135ae565b96858d8b6106d9575b9360447fce7e64508e38e0ee811932ca7484c595b473eb5a48517f8b68759d5ff6a551909587600254166040519788948593631aa194dd60e31b855260048501528301525afa80156106ce578590610694575b61048893501561068b578082101561068457505b8096613a47565b838a60046040518095819363313ce56760e01b8352165afa90811561064a576104b8928492610655575b506139d4565b92893b15610632576104e482878c8e836040518096819582946303b233ed60e51b8452600484016131d9565b03925af190811561064a578391610636575b5050893b15610632578180878c8e61052496604051809881958294632770a7eb60e21b8452600484016131d9565b03925af1928315610625578d936105fc575b50508360a09897969594939261056d927f8ff251c9e966d1195e2dce3c67a1e34fa7a83f0f48b3a3eae97cbdb61df996f89b613ea7565b888c52600a815260408c205484808210156105e2575050888c52600a81528b60408120555b888c526008815260408c20868d5281526105c660408d2060045f918281558260018201558260028201558260038201550155565b604051958652850152604084015260608301526080820152a480f35b6105eb91613878565b898d52600a825260408d2055610592565b61060e9192999897969594935061316f565b610621579091929394958a908c5f610536565b8b80fd5b50604051903d90823e3d90fd5b5080fd5b61063f9061316f565b61063257815f6104f6565b6040513d85823e3d90fd5b610676919250853d871161067d575b61066e81836131b8565b8101906132b9565b905f6104b2565b503d610664565b9050610481565b90508096613a47565b508583813d83116106c7575b6106aa81836131b8565b810103126106c3576106be61048893613213565b61046d565b8480fd5b503d6106a0565b6040513d87823e3d90fd5b505083600554166106e9816137ff565b8d3b1561075557858b8f61071493836040518096819582946340c10f1960e01b8452600484016131d9565b03925af190811561074a57868f918993610730575b505061041a565b90925061073d915061316f565b6106c357858d865f610729565b6040513d88823e3d90fd5b8580fd5b60448789846040519263658ec5dd60e11b84526004840152820152fd5b604051630ad1ee8160e21b8152600481018890528390fd5b604051631bff5b4560e31b8152600481018690528690fd5b90508781813d83116107d8575b6107bd81836131b8565b810103126107d4576107ce90613213565b5f61035d565b5f80fd5b503d6107b3565b6040513d5f823e3d90fd5b60405163299f342560e01b8152600481018790528790fd5b90508881813d8311610830575b61081981836131b8565b810103126107d45761082a90613213565b5f61032d565b503d61080f565b50346101d75760203660031901126101d7576108516130e8565b61085961370c565b610862816137ff565b600680546001600160a01b0319166001600160a01b039290921691821790557f7f1a8ca8e5de44fcd6f70fdd4a2ebdd4c8603c1d94594dd9b2b610bd10bcc7918280a280f35b50346101d75760203660031901126101d7576020906040906001600160a01b036108d06130e8565b168152600983522054604051908152f35b50346101d757806003193601126101d7576006546001600160a01b038116903382900361094857600580546001600160a01b03199081168417909155166006557f7dae230f18360d76a040c81f050aa14eb9d6dc7901b20fc5d855e2a20fe814d18280a280f35b60405163122994e360e11b815233600482015260248101849052604490fd5b50346101d75760203660031901126101d7576109816130e8565b8154604051638da5cb5b60e01b815290916001600160a01b03916020816004818688165afa80156106ce5783918691610a12575b50163303610a00576109c6816136d7565b166001600160a01b03199190911681178255337fbc5dab480bc3beb0582944eefba927e4358ed22805ac40b2078d517b8a036ae78380a380f35b604051635c427cd960e01b8152600490fd5b610a34915060203d602011610a3a575b610a2c81836131b8565b8101906131f4565b5f6109b5565b503d610a22565b50346101d75760603660031901126101d757610a5b6130e8565b610a636130fe565b60443590610a6f61380f565b610a776138a9565b6001600160a01b03908116928315610c9e571680610b8c5750479080610b865750805b8115610b7457808211610b5757508280808084865af13d15610b52573d6001600160401b038111610b3e5760405190610add601f8201601f1916602001836131b8565b81528460203d92013e5b15610b2c577f77023e19c7343ad491fd706c36335ca0e738340a91f29b1fd81e2673d44896c460208492604051908152a35b805f80516020613f6b8339815191525d80f35b6040516312171d8360e31b8152600490fd5b634e487b7160e01b85526041600452602485fd5b610ae7565b6044916040519163cf47918160e01b835260048301526024820152fd5b604051631f2a200560e01b8152600490fd5b90610a9a565b906040516370a0823160e01b81523060048201526020918282602481875afa91821561074a578692610c6f575b5080610c695750805b8115610b7457808211610b57575060405163a9059cbb60e01b86528460045281602452828660448180885af16001875114811615610c4a575b8160405215610c345750907f77023e19c7343ad491fd706c36335ca0e738340a91f29b1fd81e2673d44896c491604051908152a3610b19565b635274afe760e01b815260048101849052602490fd5b6001811516610c6057843b15153d151616610bfb565b503d86823e3d90fd5b90610bc2565b9091508281813d8311610c97575b610c8781836131b8565b810103126107d45751905f610bb9565b503d610c7d565b60405163d92e233d60e01b8152600490fd5b50346101d75760203660031901126101d757610cca6130e8565b600154604051633881fbdf60e01b81526001600160a01b03928316600482015291906020908390602490829085165afa91821561064a5760209392610d14575b5060405191168152f35b610d2c919250833d8511610a3a57610a2c81836131b8565b905f610d0a565b50346101d75760803660031901126101d757610d4d6130e8565b610d556130fe565b610d5d613114565b907f7cefac30520c214f57ae453e62c3cdc387c26505390dc8308ead6e79c38ed8af6020610d8961312a565b94610d9261380f565b610d9b816136d7565b610da4846136d7565b610dad856136d7565b60018060a01b038080809316951695169516806060604051610dce81613140565b868152848101889052604081018990520152600180546001600160a01b0319166001600160a01b038616179055600280546001600160a01b0319166001600160a01b038716179055600380546001600160a01b0319166001600160a01b038816179055600480546001600160a01b0319166001600160a01b038316179055604051908152a480f35b50346101d75760c03660031901126101d757610e706130e8565b90610e796130fe565b90610e8261312a565b91610e8b613883565b610e936138a9565b60015460405163a30bd4db60e01b81526001600160a01b0386811660048301529091169490602081602481895afa90811561168c5784916116b9575b5061169757610edd816136d7565b610ee6826137ff565b610eef846137ff565b60443515610b745760405163105a88e360e01b81526001600160a01b0382166004820152602081602481895afa90811561168c578491611652575b5015611630576001600160a01b0381811684526007602090815260408086209285165f9081529290915290205460ff161561161057610f6833613c1f565b610f7184613c1f565b610f7c843383613c51565b610f85816138d5565b604051632290961960e01b81526001600160a01b03831660048201529094906020816024818a5afa9081156106ce5785916115f1575b50610fc5816137ff565b84906001600160a01b0385811690821614806115e1575b156114f7575b5060405163313ce56760e01b81526020816004816001600160a01b0389165afa90811561074a5761103b9261102e670de0b6b3a764000093611033938a916114d8575b5060443561397e565b6137ce565b049586613a1f565b604080516305b5fb5560e01b81529190828061105b888860048401613594565b03818b5afa80156107df575f9061148b575b61107992505190613e65565b969095608435871061146a57600254604051631aa194dd60e31b81526001600160a01b0386811660048301527f683a0c981d1e6b30926e4f343f7182ef232e0eed8e7fd257088ba567585cb8a5602483015290911690602081604481855afa90811561145f578891611421575b5061134d575b5050604051630ff815ef60e11b81526001600160a01b038416600482015290602090829060249082905afa9081156106ce579061113691869161132e575b50604435903386613ea7565b85611215575b6001600160a01b0382163b15611211576040516340c10f1960e01b815284818061116a8986600484016131d9565b0381836001600160a01b0388165af180156106ce576111fd575b506020956040519160018060a01b0316825260443587830152856040830152606082015260a43560808201527fcc4c15b76d9d35e983902e9154037cbf16cff34cc0c5ca71cb39a0a267a70e0f60a03394600180831b031693600180831b031692a45f80516020613f6b8339815191525d604051908152f35b611207859161316f565b611211575f611184565b8380fd5b6001546040516302097ab160e01b81526001600160a01b038481166004830152909160209183916024918391165afa9081156106ce57859161130f575b5061125c816137ff565b6001600160a01b0383163b156106c3576040516340c10f1960e01b815285818061128a8b86600484016131d9565b0381836001600160a01b0389165af1801561074a579086916112fb575b5050604080518881525f60208201526001600160a01b038681169282019290925291811691908416907f6ae3a43a6e2971190b061c233850c3d7d568f8eed8528a5c6190be27ed36fbf290606090a361113c565b6113049061316f565b6106c357845f6112a7565b611328915060203d602011610a3a57610a2c81836131b8565b5f611252565b611347915060203d602011610a3a57610a2c81836131b8565b5f61112a565b602060249160405192838092635b602fef60e11b82527f683a0c981d1e6b30926e4f343f7182ef232e0eed8e7fd257088ba567585cb8a560048301525afa9081156114165787916113f7575b506001600160a01b0316803b156113f3576113cd91879160405180809581946325b1761760e11b8352898b60048501613297565b03915afa801561074a57908691156110ec576113e89061316f565b6106c357845f6110ec565b8680fd5b611410915060203d602011610a3a57610a2c81836131b8565b5f611399565b6040513d89823e3d90fd5b90506020813d602011611457575b8161143c602093836131b8565b810103126114535761144d90613213565b5f6110e6565b8780fd5b3d915061142f565b6040513d8a823e3d90fd5b60405163658ec5dd60e11b8152600481018890526084356024820152604490fd5b506040823d6040116114d0575b816114a5604093836131b8565b810103126107d457611079916020604051916114c08361319d565b805183520151602082015261106d565b3d9150611498565b6114f1915060203d60201161067d5761066e81836131b8565b5f611025565b905060018060a01b0360045416906040805180936369ac235b60e01b82528180611525868b60048401613594565b03915afa91821561074a57869087936115a0575b509115828115611597575b5015610fe257604051620e03fb60e41b81526001600160a01b038087166004830152909116602482015260606044820152600d60648201526c494e56414c49445f505249434560981b608482015260a490fd5b9050155f611544565b9250506040823d6040116115d9575b816115bc604093836131b8565b81010312610755576115d2602083519301613213565b915f611539565b3d91506115af565b670de0b6b3a76400009250610fdc565b61160a915060203d602011610a3a57610a2c81836131b8565b5f610fbb565b61162c6040519283926313b5cb0d60e21b845260048401613594565b0390fd5b60405163299f342560e01b81526001600160a01b039091166004820152602490fd5b90506020813d602011611684575b8161166d602093836131b8565b810103126112115761167e90613213565b5f610f2a565b3d9150611660565b6040513d86823e3d90fd5b604051631bff5b4560e31b81526001600160a01b039091166004820152602490fd5b90506020813d6020116116eb575b816116d4602093836131b8565b81010312611211576116e590613213565b5f610ecf565b3d91506116c7565b50346101d75760403660031901126101d75761170d6130e8565b60406117176130fe565b9260018060a01b03809316815260076020522091165f52602052602060ff60405f2054166040519015158152f35b50346101d75760403660031901126101d75761175f6130e8565b6117676130fe565b60015490916001600160a01b0391821690813b156106c3578480604051809463132434a760e21b825281806117a0338860048401613594565b03915afa928315610625578493611804575b50501690818452600760205260408420921691825f5260205260405f2060ff1981541690557f5e750ba825b1576fccb26dabd325fb331b59bf64a21af0452b645145ba40c17c6020604051858152a380f35b6118109192935061316f565b611211578190845f6117b2565b50346101d75760403660031901126101d75760206102ac61183c6130e8565b60243590613445565b50346101d757602090816003193601126101d7576118616130e8565b600154604051634621b57560e11b81526001600160a01b03928316600482015291849183916024918391165afa9182156118e05780926118a8575b50506040519015158152f35b9091508282813d83116118d9575b6118c081836131b8565b810103126101d757506118d290613213565b5f8061189c565b503d6118b6565b604051903d90823e3d90fd5b50346101d75760403660031901126101d75760a090604061190b6130e8565b9161191461341b565b50600180851b03809316815260086020528181206024358252602052206040519061193e82613182565b82815416928383528060018301541690602084019182526002830154916040850192835260806004600386015495606088019687520154950194855260405195865251166020850152516040840152516060830152516080820152f35b50346101d757806003193601126101d7576020600b54604051908152f35b50346101d75760403660031901126101d75760206102ac6119d86130e8565b602435906132d2565b50346101d757806003193601126101d757608060018060a01b038060015416908060025416908060035416906004541691604051938452602084015260408301526060820152f35b50346101d75760803660031901126101d757611a436130e8565b611a4b613114565b90611a5461312a565b91611a5d613883565b611a656138a9565b60015460405163a30bd4db60e01b81526001600160a01b03848116600483015290911690602081602481855afa90811561074a5786916120dd575b506120bc57611aae836136d7565b611ab7846137ff565b60243515610b7457611ac882613c1f565b611ad184613c1f565b611ada33613c1f565b611ae5848385613c51565b60405163ce577f9d60e01b81526001600160a01b0384166004820152602081602481855afa90811561074a578691612082575b5015612061576040516370a0823160e01b81526001600160a01b0383811660048301526020908290602490829088165afa90811561074a57869161202f575b50602435811061200f5750611b6b836138d5565b611b7484613a64565b506040516302097ab160e01b81526001600160a01b03861660048201529290602084602481855afa93841561145f578894611fee575b506001600160a01b03848116929086168303611f4e5750879088602435955b336001600160a01b03891603611edf575b83611dbc575b50505050506001600160a01b0384163b156107555760405162bf7e8960e31b81528690818180611c148789600484016131d9565b0381836001600160a01b038b165af18015611db157611d9d575b505060405194611c3d86613182565b60018060a01b038416865260018060a01b03166020860152816040860152606085015242608085015260018060a01b0383168552600960205260408520549360086020526040862085875260205260046080604088209260018060a01b0381511660018060a01b03199081865416178555600185019060018060a01b03602084015116908254161790556040810151600285015560608101516003850155015191015560018060a01b03831685526009602052604085205460018101908110611d8b5760018060a01b038416865260096020526040862055600a6020526040852054908101908110611d8b576001600160a01b03928316808652600a6020908152604080882093909355915160243581529290931692917f7d528c987b0f2890a799c1ea969946d039ab632beb136074586dfbcf72f5bdcc9190a4805f80516020613f6b8339815191525d80f35b60405163391fb01d60e21b8152600490fd5b611da69061316f565b61075557855f611c2e565b6040513d84823e3d90fd5b6001600160a01b0389163b1561063257611df082858b8b83604051809681958294632770a7eb60e21b8452600484016131d9565b03926001600160a01b03165af190811561064a578391611ecb575b5050611e16816137ff565b6001600160a01b0389163b15610632578184611e479260405193849283926340c10f1960e01b8452600484016131d9565b0381836001600160a01b038e165af18015611db157611eb3575b505060408051928352600160208401526001600160a01b03918216908301528616907f6ae3a43a6e2971190b061c233850c3d7d568f8eed8528a5c6190be27ed36fbf290606090a35f80808881611be0565b611ebc9061316f565b611ec757885f611e61565b8880fd5b611ed49061316f565b61063257815f611e0b565b6001600160a01b0389163b15610632578180611f188b8b60405194858094819363dd8aaa4f60e01b835260243590339060048501613297565b03926001600160a01b03165af190811561064a578391611f3a575b5050611bda565b611f439061316f565b61063257815f611f33565b604080516305b5fb5560e01b8152929183908180611f70868d60048401613594565b03915afa80156107df5789925f91611f9c575b506020611f94910151602435613e65565b929095611bc9565b9250506040823d604011611fe6575b81611fb8604093836131b8565b810103126107d457611f9460208a938160405191611fd58361319d565b805183520151828201529150611f83565b3d9150611fab565b61200891945060203d602011610a3a57610a2c81836131b8565b925f611baa565b6044906040519063658ec5dd60e11b825260048201526024356024820152fd5b90506020813d602011612059575b8161204a602093836131b8565b810103126107d457515f611b57565b3d915061203d565b60405163075e812d60e11b81526001600160a01b0384166004820152602490fd5b90506020813d6020116120b4575b8161209d602093836131b8565b81010312610755576120ae90613213565b5f611b18565b3d9150612090565b604051631bff5b4560e31b81526001600160a01b0384166004820152602490fd5b90506020813d60201161210f575b816120f8602093836131b8565b810103126107555761210990613213565b5f611aa0565b3d91506120eb565b50346101d757602090816003193601126101d7576121336130e8565b60015460405163105a88e360e01b81526001600160a01b03928316600482015291849183916024918391165afa9182156118e05780926118a85750506040519015158152f35b50346101d75760403660031901126101d7576121936130e8565b6024908135916121a161341b565b506121ab826136d7565b60015460405163105a88e360e01b81526001600160a01b03938416600482018190529392916020919084169082818581855afa9081156107df575f91612459575b5015612441578183916040519283809263a30bd4db60e01b82528960048301525afa9081156107df575f9161240c575b506123f557835f526008815260405f20855f52815260405f206040519261224284613182565b8482541680855285600184015416848601526004600284015493604087019485526003810154606088015201546080860152156123df575061228684845116613c1f565b868484511633810361238c575b5084845116825190873b15612388576040516303b233ed60e51b8152918391839182916122c49190600484016131d9565b0381838b5af18015611db157612374575b50859052600a8252604087205490518082101561235a575050838652600a81528560408120555b838652600881526040862090858752526123306040862060045f918281558260018201558260028201558260038201550155565b5116907f77bfbf6f85144523d8ec312073992f9055fd6dd6b481d82fe21d177c14ab88b78480a480f35b61236391613878565b848752600a825260408720556122fc565b61237d9061316f565b6113f357865f6122d5565b8280fd5b825190873b156123885760405163dd8aaa4f60e01b8152918391839182916123ba9190339060048501613297565b0381838b5af18015611db15715612293576123d49061316f565b6113f357865f612293565b604051630ad1ee8160e21b815260048101889052fd5b50604051631bff5b4560e31b815260048101849052fd5b90508181813d831161243a575b61242381836131b8565b810103126107d45761243490613213565b5f61221c565b503d612419565b60405163299f342560e01b8152600481018690528390fd5b90508281813d8311612487575b61247081836131b8565b810103126107d45761248190613213565b5f6121ec565b503d612466565b50346101d75760403660031901126101d75760a09060406124ad6130e8565b91600180851b0380931681526008602052818120602435825260205220818154169160018201541690600281015460046003830154920154926040519485526020850152604084015260608301526080820152f35b50346101d757806003193601126101d7576005546040516001600160a01b039091168152602090f35b50346101d757806003193601126101d75760206101cd613220565b50346101d75760203660031901126101d7576125606130e8565b61256861380f565b612571816136d7565b600480546001600160a01b0319166001600160a01b039290921691821790557f6536690106168bdf4ba72c128a053d817999b1db90cae23f139b293bf862cb758280a280f35b50346101d75760603660031901126101d7576125d16130e8565b6125d96130fe565b906044358015158091036112115760207f5e750ba825b1576fccb26dabd325fb331b59bf64a21af0452b645145ba40c17c9161261361370c565b61261c856137ff565b60018060a01b03809416938487526007835260408720951694855f52825260405f2060ff1981541660ff8316179055604051908152a380f35b50346107d45760a03660031901126107d45761266f6130e8565b61267761370c565b612680816136d7565b60243515610b7457600354604051631f6b2c0160e31b81526001600160a01b03838116600483015290911690602081602481855afa9081156107df575f91612d7a575b506040516318160ddd60e01b8152906020826004816001600160a01b0388165afa9182156107df575f92612d46575b50600b549081612ced575b5050600154604051633609469160e21b81526001600160a01b03858116600483015290929116602083602481845afa9283156107df575f93612cb8575b50604051638381243960e01b81526001600160a01b03861660048201529290602090849060249082905afa9283156107df575f93612c84575b50670e043da617250000908082810204821481151715612c7057670e92596fd629000093848102948186041490151715612c70576040516327b293fd60e01b81526001600160a01b0387166004820152608081602481895afa9081156107df575f91612c3b575b5080612c2c57505f5b80612bfc575050505f5b8060643511612bb6575060405163197ecdb960e11b81526001600160a01b0385166004820152602081602481875afa9081156107df575f91612b84575b5080602435115f14612b7d5761284290602435613878565b8015612b2c57670de0b6b3a764000061286161286793828604936137ce565b04613bbb565b90670de0b6b3a764000080820411612b1a57670de0b6b3a764000061289761289d938260243594048303906137ce565b04613be3565b8060843511612ad457505b4260443510612aba57803b156107d457604051631731578d60e21b81526001600160a01b038316600482015260248035908201526044803590820152905f908290606490829084905af180156107df57612aa7575b50606435612a28575b60843561295a575b6040516044358152606435602082015260843560408201527f5d73aae155455e81493362751d1cc340083a91423eda11687c5d5517fcfc01ef60606024359360018060a01b031692a380f35b6001546040516302097ab160e01b81526001600160a01b038381166004830152849260209183916024918391165afa908115611db1578291612a09575b506129a1816137ff565b6001600160a01b0383163b1561063257816129d491604051809381926340c10f1960e01b835260843590600484016131d9565b0381836001600160a01b0388165af18015611db1576129f5575b505061290e565b6129fe9061316f565b61063257815f6129ee565b612a22915060203d602011610a3a57610a2c81836131b8565b5f612997565b60055482906001600160a01b0316612a3f816137ff565b6001600160a01b0383163b156106325781612a7291604051809381926340c10f1960e01b835260643590600484016131d9565b0381836001600160a01b0388165af18015611db157612a93575b5050612906565b612a9c9061316f565b61063257815f612a8c565b612ab291925061316f565b5f905f6128fd565b6040516313ec045b60e21b81526044356004820152602490fd5b60649060405190634e8e141b60e11b82527f1d811ea09998ac4d0f74bf49caa540168c3aa107b6fe98d2b5b52c86b14319e7600483015260843560248301526044820152fd5b6040516314117d2960e11b8152600490fd5b505050608435156128a857604051634e8e141b60e11b81527f1d811ea09998ac4d0f74bf49caa540168c3aa107b6fe98d2b5b52c86b14319e7600482015260843560248201525f6044820152606490fd5b505f612842565b90506020813d602011612bae575b81612b9f602093836131b8565b810103126107d457515f61282a565b3d9150612b92565b604051634e8e141b60e11b81527f11618fa890234170104debf73b2563b667bd200bac1d7d8dd024e2f3fadaefd260048201526064803560248301526044820192909252fd5b612c21670de0b6b3a76400006a1a1601fc4ea7109e00000094612c2694020485613b9f565b613b9f565b046127ed565b612c369042613878565b6127e3565b90506080813d608011612c68575b81612c56608093836131b8565b810103126107d457604001515f6127da565b3d9150612c49565b634e487b7160e01b5f52601160045260245ffd5b9092506020813d602011612cb0575b81612ca0602093836131b8565b810103126107d45751915f612773565b3d9150612c93565b92506020833d602011612ce5575b81612cd3602093836131b8565b810103126107d457915191602061273a565b3d9150612cc6565b612cf990602435613b24565b90808211156126fd576064925060405191634e8e141b60e11b83527fbe78067db5db7aefe2dc1e3217fc7261de1af6ae7e3873fce982cc45d770a2cf600484015260248301526044820152fd5b9091506020813d602011612d72575b81612d62602093836131b8565b810103126107d45751905f6126f2565b3d9150612d55565b90506020813d602011612da4575b81612d95602093836131b8565b810103126107d457515f6126c3565b3d9150612d88565b346107d4575f3660031901126107d4576006546040516001600160a01b039091168152602090f35b346107d4576020806003193601126107d457612dee6130e8565b600354604051631f6b2c0160e31b81526001600160a01b03928316600482015291839183916024918391165afa9081156107df575f91612e32575b50604051908152f35b90508181813d8311612e58575b612e4981836131b8565b810103126107d4575182612e29565b503d612e3f565b346107d45760a03660031901126107d457612e786130e8565b90612e816130fe565b91612e8a613114565b92612e9361312a565b936084356001600160a01b0381811693918490036107d4577ff0c57e16840df040f15088dc2f81fe391c3923bec73e23a9662efc9c229c6a0096875460ff8160401c1615976001600160401b038216801590816130e0575b60011490816130d6575b1590816130cd575b506130be575067ffffffffffffffff19811660011789558761309f575b50612f24866136d7565b612f2d836136d7565b612f36846136d7565b612f3f816136d7565b60ff885460401c161561308d57612fe761302b94866060858080613009988d612f6a61304d9f6136d7565b16998a60018060a01b03195f5416175f556040519a5f7fbc5dab480bc3beb0582944eefba927e4358ed22805ac40b2078d517b8a036ae78180a3169416951696612fb381613140565b83815260208101869052604081018890520152600180546001600160a01b0319166001600160a01b03909216919091179055565b600280546001600160a01b0319166001600160a01b0392909216919091179055565b600380546001600160a01b0319166001600160a01b0392909216919091179055565b600480546001600160a01b0319166001600160a01b0392909216919091179055565b61305357005b805460ff60401b19169055604051600181527fc7f505b2f371ae2175ee4913f4499e1f2633a7b5936321eed1cdaeb6115181d290602090a1005b604051631afcd79f60e31b8152600490fd5b68ffffffffffffffffff19166801000000000000000117885588612f1a565b63f92ee8a960e01b8152600490fd5b9050158b612efd565b303b159150612ef5565b8a9150612eeb565b600435906001600160a01b03821682036107d457565b602435906001600160a01b03821682036107d457565b604435906001600160a01b03821682036107d457565b606435906001600160a01b03821682036107d457565b608081019081106001600160401b0382111761315b57604052565b634e487b7160e01b5f52604160045260245ffd5b6001600160401b03811161315b57604052565b60a081019081106001600160401b0382111761315b57604052565b604081019081106001600160401b0382111761315b57604052565b90601f801991011681019081106001600160401b0382111761315b57604052565b6001600160a01b039091168152602081019190915260400190565b908160209103126107d457516001600160a01b03811681036107d45790565b519081151582036107d457565b5f546001600160a01b0316801561329157602060049160405192838092637ab7236d60e01b82525afa9081156107df575f9161325a575090565b90506020813d602011613289575b81613275602093836131b8565b810103126107d45761328690613213565b90565b3d9150613268565b50600190565b6001600160a01b03918216815291166020820152604081019190915260600190565b908160209103126107d4575160ff811681036107d45790565b81156134155760018060a01b0391828060035416926040938451958692631f6b2c0160e31b8452169081600484015282602460209485935afa9586156133d2575f966133e6575b5085156133dc57818360015416916024875180948193633881fbdf60e01b835260048301525afa9081156133d2579082915f916133b5575b50600486518095819363313ce56760e01b8352165afa9384156133ac575091613286949391613388935f9361338d575b505061397e565b613a1f565b6133a4929350803d1061067d5761066e81836131b8565b905f80613381565b513d5f823e3d90fd5b6133cc9150823d8411610a3a57610a2c81836131b8565b5f613351565b85513d5f823e3d90fd5b5050505050505f90565b9095508181813d831161340e575b6133fe81836131b8565b810103126107d45751945f613319565b503d6133f4565b50505f90565b6040519061342882613182565b5f6080838281528260208201528260408201528260608201520152565b919091821561358e5760035460408051631f6b2c0160e31b81526001600160a01b03938416600482018190529195602094929385908390602490829087165afa918215613584575f92613555575b50811561354b57906134a491613a47565b91838260015416916024885180948193633881fbdf60e01b835260048301525afa80156135415784915f91613524575b50600487518094819363313ce56760e01b8352165afa9283156133d2576132869495505f93613505575b50506139d4565b61351c929350803d1061067d5761066e81836131b8565b905f806134fe565b61353b9150823d8411610a3a57610a2c81836131b8565b5f6134d4565b86513d5f823e3d90fd5b505f955050505050565b9091508481813d831161357d575b61356d81836131b8565b810103126107d45751905f613493565b503d613563565b87513d5f823e3d90fd5b505f9150565b6001600160a01b0391821681529116602082015260400190565b91908203918211612c7057565b6040516318160ddd60e01b815260209182826004816001600160a01b0385165afa9182156107df575f9261365b575b50811561365457604051632a94dc8960e21b8152918391839182916136139190600484016131d9565b0381305afa9182156107df575f9261362a57505090565b90809250813d831161364d575b61364181836131b8565b810103126107d4575190565b503d613637565b5050505f90565b9091508281813d8311613683575b61367381836131b8565b810103126107d45751905f6135ea565b503d613669565b5f546001600160a01b03908116919082156136cf5760246020926040519485938492630723eb0360e51b84521660048301525afa9081156107df575f9161325a575090565b505050600190565b6136e0816137ff565b803b156136ea5750565b60405163b5cf5b8f60e01b81526001600160a01b039091166004820152602490fd5b5f54604051632474521560e21b81527f97667070c54ef182b0f5858b034beac1b6f3089aa2d3188bb1e8929f4fa9b9296004820181905233602483015291602090829060449082906001600160a01b03165afa9081156107df575f91613794575b50156137765750565b6044906040519063122994e360e11b82523360048301526024820152fd5b90506020813d6020116137c6575b816137af602093836131b8565b810103126107d4576137c090613213565b5f61376d565b3d91506137a2565b81810292918115918404141715612c7057565b81156137eb570490565b634e487b7160e01b5f52601260045260245ffd5b6001600160a01b031615610c9e57565b5f54604051632474521560e21b81527f1f98c189de4145a8e9c8df6fb25ebc99c4b5dd94f733e5a423cf9a14d7e8ab4e6004820181905233602483015291602090829060449082906001600160a01b03165afa9081156107df575f916137945750156137765750565b808211612b1a570390565b61388b613220565b61389157565b6040516381990fd960e01b8152306004820152602490fd5b5f80516020613f6b833981519152805c6138c3576001905d565b604051633ee5aeb560e01b8152600490fd5b600354604051631f6b2c0160e31b81526001600160a01b0392831660048201819052909392909160209185916024918391165afa9283156107df575f93613939575b5082156139215750565b602490604051906320022fa160e01b82526004820152fd5b9092506020813d602011613965575b81613955602093836131b8565b810103126107d45751915f613917565b3d9150613948565b60ff16604d8111612c7057600a0a90565b9060ff166012810361398e575090565b60128110156139b5576012039060ff8211612c70576139af6132869261396d565b906137ce565b601119019060ff8211612c70576139ce6132869261396d565b906137e1565b9060ff16601281036139e4575090565b806012105f14613a0757601119019060ff8211612c70576139af6132869261396d565b6012039060ff8211612c70576139ce6132869261396d565b908015613a355781156134155761328691613be3565b60405163136e3a2560e21b8152600490fd5b801561341557670de0b6b3a764000091613a60916137ce565b0490565b600154604051632290961960e01b81526001600160a01b03928316600482018190529390929091602091168184602481845afa9384156107df575f94613b05575b508184956024604051809481936346be617560e11b835260048301525afa9081156107df57613ae6925f92613ae8575b5050613ae181946137ff565b6137ff565b565b613afe9250803d10610a3a57610a2c81836131b8565b5f80613ad5565b613b1d919450823d8411610a3a57610a2c81836131b8565b925f613aa5565b9081158015613b97575b613b895780821015613b8257815b81811115613b735790613b4e916135ae565b905b670de0b6b3a764000091828102928184041490151715612c7057613286916137e1565b613b7c916135ae565b90613b50565b8091613b3c565b5050670de0b6b3a764000090565b508015613b2e565b9190821561358e57613bb481840293846137e1565b03611d8b57565b80158015613bdb575b61341557670de0b6b3a764000091613a60916137ce565b508115613bc4565b908015613c0d57670de0b6b3a764000091828102928184041490151715612c7057613286916137e1565b6040516323d359a360e01b8152600490fd5b613c288161368a565b613c2f5750565b60405163daf49ab960e01b81526001600160a01b039091166004820152602490fd5b9060018060a01b0390816002541692604091825191631aa194dd60e31b8352600495858216878501527f357cb21cc3d7278c2227a8e16247597e4c2aa5bbc86fa3dc86342dfe4853fa0b8060248601526020948581604481865afa908115613584575f91613e30575b50613ccb575b505050505050505050565b84906024875180948193635b602fef60e11b83528c8301525afa9081156133d257879187915f91613e13575b5016928551858180613d17858863f7bb4afd60e01b988985528401613594565b0381885afa908115613584575f91613dde575b5015613dc65750613d4c928492899287519586948593849384528c8401613594565b03915afa918215613dbc575f92613d86575b505015613d6f578080808080613cc0565b51630228dfbf60e11b815292169082015260249150fd5b90809250813d8311613db5575b613d9d81836131b8565b810103126107d457613dae90613213565b5f80613d5e565b503d613d93565b83513d5f823e3d90fd5b8551630228dfbf60e11b815290871681890152602490fd5b90508581813d8311613e0c575b613df581836131b8565b810103126107d457613e0690613213565b5f613d2a565b503d613deb565b613e2a9150863d8811610a3a57610a2c81836131b8565b5f613cf7565b90508581813d8311613e5e575b613e4781836131b8565b810103126107d457613e5890613213565b5f613cba565b503d613e3d565b908115613e9f578015613e9957670de0b6b3a7640000811015611d8b57613e8f613e969183613bbb565b8092613878565b91565b50905f90565b50505f905f90565b929091613eb3846136d7565b613ebc816137ff565b613ec5836137ff565b6001600160a01b03928316939083169290848414613f58578215610b74571691604051936323b872dd60e01b5f5260045260245260445260205f60648180855af160015f5114811615613f39575b826040525f60605215613f24575050565b635274afe760e01b8252600482015260249150fd5b6001811516613f4f57813b15153d151616613f13565b823d5f823e3d90fd5b60405163367558c360e01b8152600490fdfe9b779b17422d0df92223018b32b4d1fa46e071723d6817e2486d003becc55f00a164736f6c6343000818000a","linkReferences":{}},"methodIdentifiers":{"acceptTreasury()":"e49d2a30","administrator()":"f53d0a8e","cancelRedemption(address,uint256)":"635403f6","contracts()":"6c0f79b6","convertVaultAssetsToShares(address,uint256)":"6d40ba13","convertVaultSharesToAssets(address,uint256)":"aa537224","deposit(address,address,uint256,address,uint256,bytes32)":"b6db2b38","disableAsset(address,address)":"abde088d","getNAV(address)":"179ddcdd","getRedemptionQueueEntry(address,uint256)":"886d63f4","getRedemptionQueueLength(address)":"6b532616","getStandardDebt(address)":"fd3a96ad","getVaultAsset(address)":"ca9d67c8","initialize(address,address,address,address,address)":"1459457a","isBlacklisted(address)":"fe575a87","isVault(address)":"652b9b41","isVaultPaused(address)":"8c436aea","isWhitelisted(address,address)":"b6b35272","maxNavChangePercent()":"7bd821dd","nextQueueIndex(address)":"e5030fa8","paused()":"5c975abb","pendingTreasury()":"2ed6b75d","processRedemption(address,uint256,uint256)":"f37d1683","redemptionQueues(address,uint256)":"62b22f2e","requestRedemption(address,uint256,address,address)":"6a4fd5ec","rescueTokens(address,address,uint256)":"cea9d26f","setAdministrator(address)":"df8089ef","setAssetWhitelist(address,address,bool)":"3cdbbbf3","setContracts(address,address,address,address)":"bf989b6e","setMaxNavChangePercent(uint256)":"f470abab","setPriceOracle(address)":"530e784f","setTreasury(address)":"f0f44260","standardDebt(address)":"5c69c059","totalAssets(address)":"f3e0ffbf","treasury()":"61d027b3","updateNav(address,uint256,uint256,uint256,uint256)":"3171725d"},"id":59}