{"abi":[{"type":"constructor","inputs":[],"stateMutability":"nonpayable"},{"type":"function","name":"administrator","inputs":[],"outputs":[{"name":"","type":"address","internalType":"address"}],"stateMutability":"view"},{"type":"function","name":"allowance","inputs":[{"name":"owner","type":"address","internalType":"address"},{"name":"spender","type":"address","internalType":"address"}],"outputs":[{"name":"","type":"uint256","internalType":"uint256"}],"stateMutability":"view"},{"type":"function","name":"approve","inputs":[{"name":"spender","type":"address","internalType":"address"},{"name":"value","type":"uint256","internalType":"uint256"}],"outputs":[{"name":"","type":"bool","internalType":"bool"}],"stateMutability":"nonpayable"},{"type":"function","name":"approveManager","inputs":[],"outputs":[],"stateMutability":"nonpayable"},{"type":"function","name":"asset","inputs":[],"outputs":[{"name":"","type":"address","internalType":"address"}],"stateMutability":"view"},{"type":"function","name":"balanceOf","inputs":[{"name":"account","type":"address","internalType":"address"}],"outputs":[{"name":"balance","type":"uint256","internalType":"uint256"}],"stateMutability":"view"},{"type":"function","name":"burn","inputs":[{"name":"from","type":"address","internalType":"address"},{"name":"amount","type":"uint256","internalType":"uint256"}],"outputs":[],"stateMutability":"nonpayable"},{"type":"function","name":"convertToAssets","inputs":[{"name":"shares","type":"uint256","internalType":"uint256"}],"outputs":[{"name":"assets","type":"uint256","internalType":"uint256"}],"stateMutability":"view"},{"type":"function","name":"convertToShares","inputs":[{"name":"assets","type":"uint256","internalType":"uint256"}],"outputs":[{"name":"shares","type":"uint256","internalType":"uint256"}],"stateMutability":"view"},{"type":"function","name":"decimals","inputs":[],"outputs":[{"name":"","type":"uint8","internalType":"uint8"}],"stateMutability":"pure"},{"type":"function","name":"deposit","inputs":[{"name":"assets","type":"uint256","internalType":"uint256"},{"name":"receiver","type":"address","internalType":"address"}],"outputs":[{"name":"shares","type":"uint256","internalType":"uint256"}],"stateMutability":"nonpayable"},{"type":"function","name":"getCCIPAdmin","inputs":[],"outputs":[{"name":"","type":"address","internalType":"address"}],"stateMutability":"view"},{"type":"function","name":"getRate","inputs":[],"outputs":[{"name":"rate","type":"uint256","internalType":"uint256"}],"stateMutability":"view"},{"type":"function","name":"initialize","inputs":[{"name":"name_","type":"string","internalType":"string"},{"name":"symbol_","type":"string","internalType":"string"},{"name":"administrator_","type":"address","internalType":"address"},{"name":"manager_","type":"address","internalType":"address"}],"outputs":[],"stateMutability":"nonpayable"},{"type":"function","name":"isBlacklisted","inputs":[{"name":"user","type":"address","internalType":"address"}],"outputs":[{"name":"blacklisted","type":"bool","internalType":"bool"}],"stateMutability":"view"},{"type":"function","name":"latestRoundData","inputs":[],"outputs":[{"name":"roundId","type":"uint80","internalType":"uint80"},{"name":"answer","type":"int256","internalType":"int256"},{"name":"startedAt","type":"uint256","internalType":"uint256"},{"name":"updatedAt","type":"uint256","internalType":"uint256"},{"name":"answeredInRound","type":"uint80","internalType":"uint80"}],"stateMutability":"view"},{"type":"function","name":"lockShares","inputs":[{"name":"user","type":"address","internalType":"address"},{"name":"amount","type":"uint256","internalType":"uint256"}],"outputs":[],"stateMutability":"nonpayable"},{"type":"function","name":"lockedShares","inputs":[{"name":"user","type":"address","internalType":"address"}],"outputs":[{"name":"lockedShares","type":"uint256","internalType":"uint256"}],"stateMutability":"view"},{"type":"function","name":"manager","inputs":[],"outputs":[{"name":"","type":"address","internalType":"address"}],"stateMutability":"view"},{"type":"function","name":"maxDeposit","inputs":[{"name":"","type":"address","internalType":"address"}],"outputs":[{"name":"maxAssets","type":"uint256","internalType":"uint256"}],"stateMutability":"pure"},{"type":"function","name":"maxRedeem","inputs":[{"name":"owner","type":"address","internalType":"address"}],"outputs":[{"name":"maxShares","type":"uint256","internalType":"uint256"}],"stateMutability":"view"},{"type":"function","name":"mint","inputs":[{"name":"to","type":"address","internalType":"address"},{"name":"amount","type":"uint256","internalType":"uint256"}],"outputs":[],"stateMutability":"nonpayable"},{"type":"function","name":"name","inputs":[],"outputs":[{"name":"","type":"string","internalType":"string"}],"stateMutability":"view"},{"type":"function","name":"paused","inputs":[],"outputs":[{"name":"isPaused","type":"bool","internalType":"bool"}],"stateMutability":"view"},{"type":"function","name":"previewDeposit","inputs":[{"name":"assets","type":"uint256","internalType":"uint256"}],"outputs":[{"name":"shares","type":"uint256","internalType":"uint256"}],"stateMutability":"view"},{"type":"function","name":"previewMint","inputs":[{"name":"shares","type":"uint256","internalType":"uint256"}],"outputs":[{"name":"assets","type":"uint256","internalType":"uint256"}],"stateMutability":"view"},{"type":"function","name":"previewRedeem","inputs":[{"name":"shares","type":"uint256","internalType":"uint256"}],"outputs":[{"name":"assets","type":"uint256","internalType":"uint256"}],"stateMutability":"view"},{"type":"function","name":"previewWithdraw","inputs":[{"name":"assets","type":"uint256","internalType":"uint256"}],"outputs":[{"name":"shares","type":"uint256","internalType":"uint256"}],"stateMutability":"view"},{"type":"function","name":"rescueTokens","inputs":[{"name":"token","type":"address","internalType":"address"},{"name":"to","type":"address","internalType":"address"},{"name":"amount","type":"uint256","internalType":"uint256"}],"outputs":[],"stateMutability":"nonpayable"},{"type":"function","name":"setAdministrator","inputs":[{"name":"_administrator","type":"address","internalType":"address"}],"outputs":[],"stateMutability":"nonpayable"},{"type":"function","name":"setNameAndSymbol","inputs":[{"name":"newName","type":"string","internalType":"string"},{"name":"newSymbol","type":"string","internalType":"string"}],"outputs":[],"stateMutability":"nonpayable"},{"type":"function","name":"spendAllowance","inputs":[{"name":"owner","type":"address","internalType":"address"},{"name":"spender","type":"address","internalType":"address"},{"name":"amount","type":"uint256","internalType":"uint256"}],"outputs":[],"stateMutability":"nonpayable"},{"type":"function","name":"symbol","inputs":[],"outputs":[{"name":"","type":"string","internalType":"string"}],"stateMutability":"view"},{"type":"function","name":"totalAssets","inputs":[],"outputs":[{"name":"","type":"uint256","internalType":"uint256"}],"stateMutability":"view"},{"type":"function","name":"totalSupply","inputs":[],"outputs":[{"name":"","type":"uint256","internalType":"uint256"}],"stateMutability":"view"},{"type":"function","name":"transfer","inputs":[{"name":"to","type":"address","internalType":"address"},{"name":"value","type":"uint256","internalType":"uint256"}],"outputs":[{"name":"","type":"bool","internalType":"bool"}],"stateMutability":"nonpayable"},{"type":"function","name":"transferFrom","inputs":[{"name":"from","type":"address","internalType":"address"},{"name":"to","type":"address","internalType":"address"},{"name":"value","type":"uint256","internalType":"uint256"}],"outputs":[{"name":"","type":"bool","internalType":"bool"}],"stateMutability":"nonpayable"},{"type":"function","name":"unlockShares","inputs":[{"name":"user","type":"address","internalType":"address"},{"name":"amount","type":"uint256","internalType":"uint256"}],"outputs":[],"stateMutability":"nonpayable"},{"type":"event","name":"AdministratorSet","inputs":[{"name":"caller","type":"address","indexed":true,"internalType":"address"},{"name":"newAdministrator","type":"address","indexed":true,"internalType":"address"}],"anonymous":false},{"type":"event","name":"Approval","inputs":[{"name":"owner","type":"address","indexed":true,"internalType":"address"},{"name":"spender","type":"address","indexed":true,"internalType":"address"},{"name":"value","type":"uint256","indexed":false,"internalType":"uint256"}],"anonymous":false},{"type":"event","name":"AssetFeeConfigUpdated","inputs":[{"name":"vault","type":"address","indexed":true,"internalType":"address"},{"name":"asset","type":"address","indexed":true,"internalType":"address"},{"name":"depositFee","type":"uint256","indexed":false,"internalType":"uint256"},{"name":"redemptionFee","type":"uint256","indexed":false,"internalType":"uint256"}],"anonymous":false},{"type":"event","name":"AssetWhitelisted","inputs":[{"name":"vault","type":"address","indexed":true,"internalType":"address"},{"name":"asset","type":"address","indexed":true,"internalType":"address"},{"name":"status","type":"bool","indexed":false,"internalType":"bool"}],"anonymous":false},{"type":"event","name":"BaseAssetUpdated","inputs":[{"name":"vault","type":"address","indexed":true,"internalType":"address"},{"name":"oldBaseAsset","type":"address","indexed":true,"internalType":"address"},{"name":"newBaseAsset","type":"address","indexed":true,"internalType":"address"}],"anonymous":false},{"type":"event","name":"ContractsSet","inputs":[{"name":"registry","type":"address","indexed":true,"internalType":"address"},{"name":"featureRegistry","type":"address","indexed":true,"internalType":"address"},{"name":"navContract","type":"address","indexed":true,"internalType":"address"},{"name":"priceOracle","type":"address","indexed":false,"internalType":"address"}],"anonymous":false},{"type":"event","name":"CuratorUpdated","inputs":[{"name":"vault","type":"address","indexed":true,"internalType":"address"},{"name":"oldCurator","type":"address","indexed":true,"internalType":"address"},{"name":"newCurator","type":"address","indexed":true,"internalType":"address"}],"anonymous":false},{"type":"event","name":"Deposit","inputs":[{"name":"vault","type":"address","indexed":true,"internalType":"address"},{"name":"asset","type":"address","indexed":true,"internalType":"address"},{"name":"sender","type":"address","indexed":true,"internalType":"address"},{"name":"receiver","type":"address","indexed":false,"internalType":"address"},{"name":"assets","type":"uint256","indexed":false,"internalType":"uint256"},{"name":"shares","type":"uint256","indexed":false,"internalType":"uint256"},{"name":"feeShares","type":"uint256","indexed":false,"internalType":"uint256"},{"name":"referralCode","type":"bytes32","indexed":false,"internalType":"bytes32"}],"anonymous":false},{"type":"event","name":"DepositRecipientPending","inputs":[{"name":"vault","type":"address","indexed":true,"internalType":"address"},{"name":"pendingDepositRecipient","type":"address","indexed":true,"internalType":"address"}],"anonymous":false},{"type":"event","name":"DepositRecipientUpdated","inputs":[{"name":"vault","type":"address","indexed":true,"internalType":"address"},{"name":"oldDepositRecipient","type":"address","indexed":true,"internalType":"address"},{"name":"newDepositRecipient","type":"address","indexed":true,"internalType":"address"}],"anonymous":false},{"type":"event","name":"FeatureDisabled","inputs":[{"name":"vault","type":"address","indexed":true,"internalType":"address"},{"name":"featureId","type":"bytes32","indexed":true,"internalType":"bytes32"}],"anonymous":false},{"type":"event","name":"FeatureEnabled","inputs":[{"name":"vault","type":"address","indexed":true,"internalType":"address"},{"name":"featureId","type":"bytes32","indexed":true,"internalType":"bytes32"}],"anonymous":false},{"type":"event","name":"FeatureInitialized","inputs":[{"name":"vault","type":"address","indexed":true,"internalType":"address"},{"name":"featureId","type":"bytes32","indexed":true,"internalType":"bytes32"}],"anonymous":false},{"type":"event","name":"FeeReceiverPending","inputs":[{"name":"vault","type":"address","indexed":true,"internalType":"address"},{"name":"pendingFeeReceiver","type":"address","indexed":true,"internalType":"address"}],"anonymous":false},{"type":"event","name":"FeeReceiverUpdated","inputs":[{"name":"vault","type":"address","indexed":true,"internalType":"address"},{"name":"oldFeeReceiver","type":"address","indexed":true,"internalType":"address"},{"name":"newFeeReceiver","type":"address","indexed":true,"internalType":"address"}],"anonymous":false},{"type":"event","name":"FeeTransferred","inputs":[{"name":"vault","type":"address","indexed":true,"internalType":"address"},{"name":"feeReceiver","type":"address","indexed":true,"internalType":"address"},{"name":"feeShares","type":"uint256","indexed":false,"internalType":"uint256"},{"name":"feeType","type":"uint8","indexed":false,"internalType":"enum IEvents.FeeType"},{"name":"asset","type":"address","indexed":false,"internalType":"address"}],"anonymous":false},{"type":"event","name":"FeesClawedBack","inputs":[{"name":"vault","type":"address","indexed":true,"internalType":"address"},{"name":"feeType","type":"uint8","indexed":true,"internalType":"uint8"},{"name":"treasury","type":"address","indexed":true,"internalType":"address"},{"name":"shares","type":"uint256","indexed":false,"internalType":"uint256"}],"anonymous":false},{"type":"event","name":"Initialized","inputs":[{"name":"version","type":"uint64","indexed":false,"internalType":"uint64"}],"anonymous":false},{"type":"event","name":"MaxNavChangePercentUpdated","inputs":[{"name":"maxNavChangePercent","type":"uint256","indexed":false,"internalType":"uint256"}],"anonymous":false},{"type":"event","name":"NAVUpdated","inputs":[{"name":"vault","type":"address","indexed":true,"internalType":"address"},{"name":"newNav","type":"uint256","indexed":true,"internalType":"uint256"},{"name":"vestingEndTime","type":"uint256","indexed":false,"internalType":"uint256"},{"name":"managementFee","type":"uint256","indexed":false,"internalType":"uint256"},{"name":"performanceFee","type":"uint256","indexed":false,"internalType":"uint256"}],"anonymous":false},{"type":"event","name":"NameAndSymbolUpdated","inputs":[{"name":"vault","type":"address","indexed":true,"internalType":"address"},{"name":"oldName","type":"string","indexed":false,"internalType":"string"},{"name":"oldSymbol","type":"string","indexed":false,"internalType":"string"},{"name":"newName","type":"string","indexed":false,"internalType":"string"},{"name":"newSymbol","type":"string","indexed":false,"internalType":"string"}],"anonymous":false},{"type":"event","name":"PriceOracleSet","inputs":[{"name":"priceOracle","type":"address","indexed":true,"internalType":"address"}],"anonymous":false},{"type":"event","name":"RedemptionCancelled","inputs":[{"name":"vault","type":"address","indexed":true,"internalType":"address"},{"name":"user","type":"address","indexed":true,"internalType":"address"},{"name":"queueIndex","type":"uint256","indexed":true,"internalType":"uint256"}],"anonymous":false},{"type":"event","name":"RedemptionEnabled","inputs":[{"name":"vault","type":"address","indexed":true,"internalType":"address"},{"name":"enabled","type":"bool","indexed":false,"internalType":"bool"}],"anonymous":false},{"type":"event","name":"RedemptionProcessed","inputs":[{"name":"vault","type":"address","indexed":true,"internalType":"address"},{"name":"user","type":"address","indexed":true,"internalType":"address"},{"name":"receiver","type":"address","indexed":true,"internalType":"address"},{"name":"queueIndex","type":"uint256","indexed":false,"internalType":"uint256"},{"name":"assets","type":"uint256","indexed":false,"internalType":"uint256"},{"name":"effectiveNav","type":"uint256","indexed":false,"internalType":"uint256"},{"name":"burnShares","type":"uint256","indexed":false,"internalType":"uint256"},{"name":"gasFeeShares","type":"uint256","indexed":false,"internalType":"uint256"}],"anonymous":false},{"type":"event","name":"RedemptionRequested","inputs":[{"name":"vault","type":"address","indexed":true,"internalType":"address"},{"name":"user","type":"address","indexed":true,"internalType":"address"},{"name":"queueIndex","type":"uint256","indexed":true,"internalType":"uint256"},{"name":"shares","type":"uint256","indexed":false,"internalType":"uint256"}],"anonymous":false},{"type":"event","name":"RedemptionSourceUpdated","inputs":[{"name":"vault","type":"address","indexed":true,"internalType":"address"},{"name":"oldRedemptionSource","type":"address","indexed":true,"internalType":"address"},{"name":"newRedemptionSource","type":"address","indexed":true,"internalType":"address"}],"anonymous":false},{"type":"event","name":"SharesLocked","inputs":[{"name":"vault","type":"address","indexed":true,"internalType":"address"},{"name":"user","type":"address","indexed":true,"internalType":"address"},{"name":"amount","type":"uint256","indexed":false,"internalType":"uint256"}],"anonymous":false},{"type":"event","name":"SharesUnlocked","inputs":[{"name":"vault","type":"address","indexed":true,"internalType":"address"},{"name":"user","type":"address","indexed":true,"internalType":"address"},{"name":"amount","type":"uint256","indexed":false,"internalType":"uint256"}],"anonymous":false},{"type":"event","name":"TokensRescued","inputs":[{"name":"token","type":"address","indexed":true,"internalType":"address"},{"name":"to","type":"address","indexed":true,"internalType":"address"},{"name":"amount","type":"uint256","indexed":false,"internalType":"uint256"}],"anonymous":false},{"type":"event","name":"TransactionFeeStored","inputs":[{"name":"vault","type":"address","indexed":true,"internalType":"address"},{"name":"shares","type":"uint256","indexed":false,"internalType":"uint256"},{"name":"totalStored","type":"uint256","indexed":false,"internalType":"uint256"}],"anonymous":false},{"type":"event","name":"TransactionFeesWithdrawn","inputs":[{"name":"vault","type":"address","indexed":true,"internalType":"address"},{"name":"recipient","type":"address","indexed":true,"internalType":"address"},{"name":"transactionFeeShares","type":"uint256","indexed":false,"internalType":"uint256"}],"anonymous":false},{"type":"event","name":"Transfer","inputs":[{"name":"from","type":"address","indexed":true,"internalType":"address"},{"name":"to","type":"address","indexed":true,"internalType":"address"},{"name":"value","type":"uint256","indexed":false,"internalType":"uint256"}],"anonymous":false},{"type":"event","name":"TreasuryPending","inputs":[{"name":"pendingTreasury","type":"address","indexed":true,"internalType":"address"}],"anonymous":false},{"type":"event","name":"TreasuryUpdated","inputs":[{"name":"treasury","type":"address","indexed":true,"internalType":"address"}],"anonymous":false},{"type":"event","name":"VaultFeesConfigured","inputs":[{"name":"vault","type":"address","indexed":true,"internalType":"address"},{"name":"managementFee","type":"uint256","indexed":false,"internalType":"uint256"},{"name":"performanceFee","type":"uint256","indexed":false,"internalType":"uint256"}],"anonymous":false},{"type":"event","name":"VaultPaused","inputs":[{"name":"vault","type":"address","indexed":true,"internalType":"address"},{"name":"curator","type":"address","indexed":true,"internalType":"address"}],"anonymous":false},{"type":"event","name":"VaultRegistered","inputs":[{"name":"vault","type":"address","indexed":true,"internalType":"address"},{"name":"depositRecipient","type":"address","indexed":true,"internalType":"address"},{"name":"redemptionSource","type":"address","indexed":true,"internalType":"address"},{"name":"feeReceiver","type":"address","indexed":false,"internalType":"address"},{"name":"curator","type":"address","indexed":false,"internalType":"address"},{"name":"baseAsset","type":"address","indexed":false,"internalType":"address"},{"name":"managementFee","type":"uint256","indexed":false,"internalType":"uint256"},{"name":"performanceFee","type":"uint256","indexed":false,"internalType":"uint256"}],"anonymous":false},{"type":"event","name":"VaultUnpaused","inputs":[{"name":"vault","type":"address","indexed":true,"internalType":"address"},{"name":"operator","type":"address","indexed":true,"internalType":"address"}],"anonymous":false},{"type":"event","name":"VaultUnregistered","inputs":[{"name":"vault","type":"address","indexed":true,"internalType":"address"}],"anonymous":false},{"type":"error","name":"AddressBlacklisted","inputs":[{"name":"user","type":"address","internalType":"address"}]},{"type":"error","name":"ArithmeticOverflow","inputs":[]},{"type":"error","name":"ArithmeticUnderflow","inputs":[]},{"type":"error","name":"ERC20InsufficientAllowance","inputs":[{"name":"spender","type":"address","internalType":"address"},{"name":"allowance","type":"uint256","internalType":"uint256"},{"name":"needed","type":"uint256","internalType":"uint256"}]},{"type":"error","name":"ERC20InsufficientBalance","inputs":[{"name":"sender","type":"address","internalType":"address"},{"name":"balance","type":"uint256","internalType":"uint256"},{"name":"needed","type":"uint256","internalType":"uint256"}]},{"type":"error","name":"ERC20InvalidApprover","inputs":[{"name":"approver","type":"address","internalType":"address"}]},{"type":"error","name":"ERC20InvalidReceiver","inputs":[{"name":"receiver","type":"address","internalType":"address"}]},{"type":"error","name":"ERC20InvalidSender","inputs":[{"name":"sender","type":"address","internalType":"address"}]},{"type":"error","name":"ERC20InvalidSpender","inputs":[{"name":"spender","type":"address","internalType":"address"}]},{"type":"error","name":"InsufficientBalance","inputs":[{"name":"available","type":"uint256","internalType":"uint256"},{"name":"required","type":"uint256","internalType":"uint256"}]},{"type":"error","name":"InsufficientShares","inputs":[{"name":"available","type":"uint256","internalType":"uint256"},{"name":"required","type":"uint256","internalType":"uint256"}]},{"type":"error","name":"InvalidInitialization","inputs":[]},{"type":"error","name":"NotContract","inputs":[{"name":"account","type":"address","internalType":"address"}]},{"type":"error","name":"NotInitializing","inputs":[]},{"type":"error","name":"ReentrancyGuardReentrantCall","inputs":[]},{"type":"error","name":"SafeERC20FailedOperation","inputs":[{"name":"token","type":"address","internalType":"address"}]},{"type":"error","name":"TransferFailed","inputs":[]},{"type":"error","name":"Unauthorized","inputs":[{"name":"caller","type":"address","internalType":"address"},{"name":"requiredRole","type":"bytes32","internalType":"bytes32"}]},{"type":"error","name":"UnauthorizedCaller","inputs":[]},{"type":"error","name":"VaultPaused","inputs":[{"name":"vault","type":"address","internalType":"address"}]},{"type":"error","name":"ZeroAddress","inputs":[]},{"type":"error","name":"ZeroAmount","inputs":[]}],"bytecode":{"object":"0x608080604052346100b8577ff0c57e16840df040f15088dc2f81fe391c3923bec73e23a9662efc9c229c6a009081549060ff8260401c166100a957506001600160401b036002600160401b031982821601610064575b60405161254290816100bd8239f35b6001600160401b031990911681179091556040519081527fc7f505b2f371ae2175ee4913f4499e1f2633a7b5936321eed1cdaeb6115181d290602090a15f8080610055565b63f92ee8a960e01b8152600490fd5b5f80fdfe6080604090808252600480361015610015575f80fd5b5f3560e01c91826301e1d114146119c75750816305fbf448146118fb57816306fdde03146118de57816307a2d13a14610826578163095ea7b3146118375781630a28a4771461026357816318160ddd1461180d57816323b872dd146117e7578163313ce567146117cc57816338d52e0f1461174a578163402d267d1461172557816340c10f19146115f5578163481c6a75146115ce5781634cdad506146108265781635a446215146112f85781635c975abb146112dc578163679aefce146112535781636e553f65146110e257816370a082311461040557816376467da0146110125781638f15b41414610a535781638fd6a6ac14610a2c57816395d89b41146109f85781639dc29fac1461085b578163a9059cbb1461082b578163b3d7f6b914610826578163b4c3ff6314610753578163c6e6f59214610263578163cea9d26f14610431578163d905777e14610405578163dd62ed3e146103c0578163dd8aaa4f1461037e578163df8089ef1461029f57508063e336ac4414610268578063ef8b30f714610263578063f53d0a8e1461023c578063fe575a871461020e5763feaf968c146101c2575f80fd5b3461020a575f36600319011261020a5760a0906101dd611fbe565b929480929192519569ffffffffffffffffffff809616875260208701528501526060840152166080820152f35b5f80fd5b503461020a57602036600319011261020a5760209061023361022e611a19565b611f71565b90519015158152f35b503461020a575f36600319011261020a575f5490516001600160a01b039091168152602090f35b611b19565b503461020a57602036600319011261020a576020906001600160a01b0361028d611a19565b165f5260038252805f20549051908152f35b823461020a57602036600319011261020a576102b9611a19565b5f548251638da5cb5b60e01b815290936001600160a01b039390916020818481888a165afa908115610374579085915f91610345575b501633036103385750506103028161242d565b16809160018060a01b031916175f55337fbc5dab480bc3beb0582944eefba927e4358ed22805ac40b2078d517b8a036ae75f80a3005b51635c427cd960e01b8152fd5b610367915060203d60201161036d575b61035f8183611bc3565b810190611de7565b876102ef565b503d610355565b82513d5f823e3d90fd5b823461020a5761038d36611b60565b84549093919291906001600160a01b031633036103b157506103af9350612124565b005b51635c427cd960e01b81528490fd5b823461020a578060031936011261020a576020906103dc611a19565b6103ed6103e7611a2f565b91611c5b565b9060018060a01b03165f528252805f20549051908152f35b823461020a57602036600319011261020a5760209061042a610425611a19565b611f3e565b9051908152f35b823461020a5761044036611b60565b909260018060a01b0394855f5416825196632474521560e21b88527f1f98c189de4145a8e9c8df6fb25ebc99c4b5dd94f733e5a423cf9a14d7e8ab4e80848a015288602493338583015281604460209c8d935afa908115610749575f9161071c575b501561070057507f9b779b17422d0df92223018b32b4d1fa46e071723d6817e2486d003becc55f0096875c6106f05781906001895d169586156106e05716806105a4575047938061059e5750835b841561058e578085116105755750505f80808086885af13d15610570573d61051781611bf9565b9061052485519283611bc3565b81525f883d92013e5b1561056257505f9485927f77023e19c7343ad491fd706c36335ca0e738340a91f29b1fd81e2673d44896c49251908152a35b5d005b90516312171d8360e31b8152fd5b61052d565b6044949293519363cf47918160e01b8552840152820152fd5b8351631f2a200560e01b81528390fd5b936104f0565b9392918251936370a0823160e01b8552308286015288858481895afa9485156106d6575f956106a7575b50806106a15750835b841561069257808511610678575082519063a9059cbb60e01b5f52868152848352885f604481808a5af160015f5114811615610659575b8285521561064857505050947f77023e19c7343ad491fd706c36335ca0e738340a91f29b1fd81e2673d44896c4915f9651908152a361055f565b635274afe760e01b82528101859052fd5b600181151661066f57863b15153d15161661060e565b823d5f823e3d90fd5b604494929193519363cf47918160e01b8552840152820152fd5b508251631f2a200560e01b8152fd5b936105d7565b9094508881813d83116106cf575b6106bf8183611bc3565b8101031261020a575193896105ce565b503d6106b5565b84513d5f823e3d90fd5b845163d92e233d60e01b81528490fd5b8451633ee5aeb560e01b81528490fd5b919050604493519263122994e360e11b84523390840152820152fd5b61073c91508a3d8c11610742575b6107348183611bc3565b810190611eca565b8a6104a2565b503d61072a565b86513d5f823e3d90fd5b90503461020a575f36600319011261020a5761076d612369565b80548251631953acf960e31b81523081840152602093909290916001600160a01b0390811691908585602481865afa9485156106d65790869392915f96610800575b50905f6044928651978895869463095ea7b360e01b865285015282196024850152165af19081156107f757506107e157005b816103af92903d10610742576107348183611bc3565b513d5f823e3d90fd5b60449291965061081d5f91863d881161036d5761035f8183611bc3565b969192506107af565b611a83565b823461020a578060031936011261020a5760209061085461084a611a19565b60243590336121ec565b5160018152f35b90503461020a578160031936011261020a57610875611a19565b916024359061088333612054565b61088c84612102565b81156109e9576001600160a01b03848116939084156109d3578154169482518096634621b57560e11b825230848301528160246020998a935afa9081156106d6575f916109b6575b5061099f576108e2816124a3565b6108eb81611f3e565b8481106109835750845f525f805160206124d683398151915290818752835f20549285841061094f575f875f805160206125168339815191528a8989818a8a878952855203818720555f805160206124f683398151915282815403905551908152a3005b845163391434e360e21b81526001600160a01b03909216908201908152602081018490526040810186905281906060010390fd5b849150604493519263658ec5dd60e11b84528301526024820152fd5b506024915190631bff5b4560e31b82523090820152fd5b6109cd9150873d8911610742576107348183611bc3565b5f6108d4565b505f6024925191634b637e8f60e11b8352820152fd5b51631f2a200560e01b81529050fd5b823461020a575f36600319011261020a57610a2890610a15611d6c565b9051918291602083526020830190611a45565b0390f35b823461020a575f36600319011261020a575f5490516001600160a01b039091168152602090f35b90503461020a57608036600319011261020a5767ffffffffffffffff813581811161020a57610a859036908401611c15565b9060243581811161020a57610a9d9036908501611c15565b926001600160a01b0391604435908382169081830361020a576064359485169283860361020a577ff0c57e16840df040f15088dc2f81fe391c3923bec73e23a9662efc9c229c6a009788549760ff898c1c161597848a16998a158061100b575b6001809c149081611001575b159081610ff8575b50610fe85767ffffffffffffffff1981168b178c55610b4091908a610fc9575b50610b3b8561242d565b61242d565b610b48612462565b610b50612462565b805192848411610e2f577f52c63247e1f47db19d5ce0460030c497f067ca4cebf71ba98eeadabe20bace03610b858154611c93565b94601f95868111610f84575b506020868211600114610f1f579080610bbe925f91610f14575b508160011b915f199060031b1c19161790565b90555b8251858111610f01577f52c63247e1f47db19d5ce0460030c497f067ca4cebf71ba98eeadabe20bace0490610bf68254611c93565b868111610ebc575b506020868211600114610e4d5781610c3a949392610c2f925f91610e4257508160011b915f199060031b1c19161790565b90555b610b3b612462565b5f80546001600160a01b03199081168717825595907fbc5dab480bc3beb0582944eefba927e4358ed22805ac40b2078d517b8a036ae78180a3805190848211610e2f57610c9082610c8b8c54611c93565b611e06565b602090848311600114610dd157610cbe92915f9183610d53575b50508160011b915f199060031b1c19161790565b88555b8051928311610dbe57610cde83610cd9600254611c93565b611e5a565b6020918311600114610d5e57610d0a92915f9183610d535750508160011b915f199060031b1c19161790565b6002555b825416179055610d1a57005b815460ff60401b191690915590519081527fc7f505b2f371ae2175ee4913f4499e1f2633a7b5936321eed1cdaeb6115181d290602090a1005b015190505f80610caa565b879291601f1983169160025f52815f20925f5b818110610da657508411610d8e575b505050811b01600255610d0e565b01515f1960f88460031b161c191690555f8080610d80565b8284015185558b969094019360209384019301610d71565b604186634e487b7160e01b5f525260245ffd5b8a9291601f19831691845f52815f20925f5b818110610e1757508411610dff575b505050811b018855610cc1565b01515f1960f88460031b161c191690555f8080610df2565b8284015185558e969094019360209384019301610de3565b604188634e487b7160e01b5f525260245ffd5b90508701515f610bab565b5f838152818120601f1984169594938f9390925b878110610e98575082610c3a9710610e80575b5050811b019055610c32565b8801515f1960f88460031b161c191690555f80610e74565b929495969181946020929183928c015181550194019201918f939196959492610e61565b825f5260205f208780840160051c82019260208510610ef8575b0160051c01908d905b828110610eed575050610bfe565b5f8155018d90610edf565b92508192610ed6565b604189634e487b7160e01b5f525260245ffd5b90508501515f610bab565b908c91601f19821690845f52805f20915f5b818110610f6457508311610f4c575b5050811b019055610bc1565b8601515f1960f88460031b161c191690555f80610f40565b92829495602092939183928b015181550194019201908f94939291610f31565b825f5260205f208780840160051c82019260208510610fc0575b0160051c01908d905b828110610fb5575050610b91565b5f8155018d90610fa7565b92508192610f9e565b68ffffffffffffffffff191668010000000000000001178c555f610b31565b8c5163f92ee8a960e01b81528990fd5b9050155f610b11565b303b159150610b09565b5089610afd565b823461020a578060031936011261020a5761102b611a19565b906024359161103933612054565b61104281612102565b82156110d2576001600160a01b03165f8181526003602052829020549093908381106110b7575050825f52600360205261107f82825f2054612410565b835f526003602052815f2055519081527fcaa47e9d14c199392b81bc14eb9100c8b396e64edf32fda1ec1414eb5dea505060203092a3005b6044939192519263658ec5dd60e11b84528301526024820152fd5b8151631f2a200560e01b81528490fd5b823461020a578060031936011261020a578135906110fe611a2f565b83548251631953acf960e31b81523081870152602095916001600160a01b03908116918781602481865afa908115610749579082915f91611236575b50169385516323b872dd60e01b5f523385523060245287604452885f606481808a5af160015f5114811615611217575b8188525f60605215611202575060c492889594925f928851998a9788966316db656760e31b88523090880152602487015260448601521660648401528160848401528160a48401525af19182156111f8575f926111c9575b5051908152f35b9091508281813d83116111f1575b6111e18183611bc3565b8101031261020a575190836111c2565b503d6111d7565b50513d5f823e3d90fd5b635274afe760e01b8152848101869052602490fd5b600181151661122d57863b15153d15161661116a565b503d5f823e3d90fd5b61124d9150893d8b1161036d5761035f8183611bc3565b8961113a565b823461020a575f36600319011261020a578154815163179ddcdd60e01b81523093810193909352602090839060249082906001600160a01b03165afa9081156107f7575f916112a7575b6020925051908152f35b90506020823d6020116112d4575b816112c260209383611bc3565b8101031261020a57602091519061129d565b3d91506112b5565b823461020a575f36600319011261020a57602090610233611ee2565b823461020a578060031936011261020a5767ffffffffffffffff90823582811161020a576113299036908501611b95565b60249291923584811161020a576113439036908701611b95565b93909561134e612369565b82156115c05784156115c057611362611ccb565b9561136b611d6c565b9181851161153a5760019161138486610c8b8554611c93565b5f86601f811160011461155857806113af925f9161154d57508160011b915f199060031b1c19161790565b83555b871161153a57506113c886610cd9600254611c93565b875f91601f881160011461147d575093869361145061145d9461142b876114429b7f536e1a6df4c41d06130365e73037186d40214c78c9eaf878f0b2829afd4b56b59d9b9761146d9b5f926114725750508160011b915f199060031b1c19161790565b6002555b8451998a9960808b5260808b0190611a45565b9089820360208b0152611a45565b9287840390880152611eaa565b9083820360608501523096611eaa565b0390a2005b013590508f8f610caa565b60025f90815290927f405787fa12a823e0f2b7631cc41b3ba8828b3321ca811111fa75cd3aa3bb5ace9291601f198a169060205b828210611521575050947f536e1a6df4c41d06130365e73037186d40214c78c9eaf878f0b2829afd4b56b59a989461146d98948b9894611450946114429d61145d9a10611508575b50505087811b0160025561142f565b01355f1960038b901b60f8161c191690558d8d816114f9565b938301358555938501938c9392830192908101906114b1565b604190634e487b7160e01b5f525260245ffd5b90508701358d610bab565b50601f19871690845f528760209260205f20935f905b888383106115a6575050501061158d575b50508286811b0183556113b2565b8601355f19600389901b60f8161c191690558a8061157f565b8b860135875590950194938401938b93509081019061156e565b8351631f2a200560e01b8152fd5b823461020a575f36600319011261020a57905490516001600160a01b039091168152602090f35b90503461020a578160031936011261020a5761160f611a19565b916024359161161d33612054565b61162684612102565b8215611717576001600160a01b0384811694908515611701576020602491845416855192838092634621b57560e11b825230888301525afa9081156106d6575f916116e2575b5061099f5761167a906124a3565b5f805160206124f68339815191528054918483018093116116cf5750925f80516020612516833981519152926020925f95558585525f805160206124d6833981519152835280852082815401905551908152a3005b601190634e487b7160e01b5f525260245ffd5b6116fb915060203d602011610742576107348183611bc3565b5f61166c565b835163ec442f0560e01b81525f81850152602490fd5b9051631f2a200560e01b8152fd5b823461020a57602036600319011261020a57602090611742611a19565b50515f198152f35b90503461020a575f36600319011261020a5780548251631953acf960e31b815230928101929092526001600160a01b03906020908390602490829085165afa9182156117c257926020935f936117a3575b505191168152f35b6117bb919350843d861161036d5761035f8183611bc3565b915f61179b565b83513d5f823e3d90fd5b823461020a575f36600319011261020a576020905160128152f35b823461020a576020906108546117fc36611b60565b91611808833383612124565b6121ec565b823461020a575f36600319011261020a576020905f805160206124f6833981519152549051908152f35b823461020a578060031936011261020a57611850611a19565b6024359033156118c8576001600160a01b03169081156118b2576020935061187733611c5b565b825f52845280835f205582519081527f8c5be1e5ebec7d5bd14f71427d1e84f3dd0314c0f7b2291e5b200ac8c7c3b925843392a35160018152f35b8251634a1406b160e11b81525f81860152602490fd5b825163e602df0560e01b81525f81860152602490fd5b823461020a575f36600319011261020a57610a2890610a15611ccb565b823461020a578060031936011261020a57611914611a19565b906024359161192233612054565b61192b81612102565b82156110d25761193a81611f3e565b8381106119ab57506001600160a01b03165f818152600360205282902054909383820191821061199d5750835f526003602052815f2055519081527fadaf7cd2178b99e491663765f870a4bb88d3dd6a05f807c61280a61335c022d560203092a3005b825163391fb01d60e21b8152fd5b848460449285519263658ec5dd60e11b84528301526024820152fd5b83823461020a575f36600319011261020a57805463f3e0ffbf60e01b84523091840191909152602090839060249082906001600160a01b03165afa9081156107f7575f916112a7576020925051908152f35b600435906001600160a01b038216820361020a57565b602435906001600160a01b038216820361020a57565b91908251928382525f5b848110611a6f575050825f602080949584010152601f8019910116010190565b602081830181015184830182015201611a4f565b3461020a5760208060031936011261020a5760048054604051632a94dc8960e21b8152308184015291356024830152829082906001600160a01b03168180604481015b03915afa908115611b0e575f91611ae1575b50604051908152f35b90508181813d8311611b07575b611af88183611bc3565b8101031261020a57515f611ad8565b503d611aee565b6040513d5f823e3d90fd5b3461020a5760208060031936011261020a5760048054604051636d40ba1360e01b8152308184015291356024830152829082906001600160a01b0316818060448101611ac6565b606090600319011261020a576001600160a01b0390600435828116810361020a5791602435908116810361020a579060443590565b9181601f8401121561020a5782359167ffffffffffffffff831161020a576020838186019501011161020a57565b90601f8019910116810190811067ffffffffffffffff821117611be557604052565b634e487b7160e01b5f52604160045260245ffd5b67ffffffffffffffff8111611be557601f01601f191660200190565b81601f8201121561020a57803590611c2c82611bf9565b92611c3a6040519485611bc3565b8284526020838301011161020a57815f926020809301838601378301015290565b6001600160a01b03165f9081527f52c63247e1f47db19d5ce0460030c497f067ca4cebf71ba98eeadabe20bace016020526040902090565b90600182811c92168015611cc1575b6020831014611cad57565b634e487b7160e01b5f52602260045260245ffd5b91607f1691611ca2565b604051905f8260019160015492611ce184611c93565b908184526020946001811690815f14611d4c5750600114611d0d575b5050611d0b92500383611bc3565b565b9093915060015f52815f20935f915b818310611d34575050611d0b93508201015f80611cfd565b85548884018501529485019487945091830191611d1c565b915050611d0b94925060ff191682840152151560051b8201015f80611cfd565b604051905f8260025491611d7f83611c93565b808352602093600190818116908115611d4c5750600114611da8575050611d0b92500383611bc3565b9093915060025f52815f20935f915b818310611dcf575050611d0b93508201015f80611cfd565b85548884018501529485019487945091830191611db7565b9081602091031261020a57516001600160a01b038116810361020a5790565b90601f8211611e13575050565b60019160015f5260205f20906020601f840160051c83019310611e50575b601f0160051c01905b818110611e4657505050565b5f81558201611e3a565b9091508190611e31565b601f8111611e66575050565b60025f5260205f20906020601f840160051c83019310611ea0575b601f0160051c01905b818110611e95575050565b5f8155600101611e8a565b9091508190611e81565b908060209392818452848401375f828201840152601f01601f1916010190565b9081602091031261020a5751801515810361020a5790565b5f546001600160a01b03168015611f3857602060049160405192838092637ab7236d60e01b82525afa908115611b0e575f91611f1c575090565b611f35915060203d602011610742576107348183611bc3565b90565b50600190565b60018060a01b03165f525f805160206124d6833981519152602052611f3560405f2054600360205260405f205490612410565b5f546001600160a01b0390811691908215611fb65760246020926040519485938492630723eb0360e51b84521660048301525afa908115611b0e575f91611f1c575090565b505050600190565b602490602060018060a01b03600454166040519384809263179ddcdd60e01b82523060048301525afa918215611b0e575f92612020575b5081156120135769ffffffffffffffffffff43169190429042908490565b5f91508190819081908190565b9091506020813d60201161204c575b8161203c60209383611bc3565b8101031261020a5751905f611ff5565b3d915061202f565b5f54604051632474521560e21b81527fe039532f16c36c449bfb7fc27a6415ab8875c7fbe20c68c66255fe2197a873de600482018190526001600160a01b039384166024830181905293909260209183916044918391165afa908115611b0e575f916120e3575b50156120c5575050565b604492506040519163122994e360e11b835260048301526024820152fd5b6120fc915060203d602011610742576107348183611bc3565b5f6120bb565b6001600160a01b03161561211257565b60405163d92e233d60e01b8152600490fd5b61212d81611c5b565b9060018060a01b0380841692835f5260205260405f2054935f198510612156575b505050505050565b8585106121bb57508116156121a357811561218b5761217490611c5b565b905f526020520360405f20555f808080808061214e565b604051634a1406b160e11b81525f6004820152602490fd5b60405163e602df0560e01b81525f6004820152602490fd5b604051637dc7a0d960e11b81526001600160a01b039190911660048201526024810185905260448101869052606490fd5b92916001600160a01b03918285169182156123515783821693841561233957600454169160409081518094634621b57560e11b825230600483015281602460209788935afa9081156117c2575f9161231c575b506123055761225690612251896124a3565b6124a3565b61225f87611f3e565b8281106122e95750835f525f805160206124d6833981519152808452815f2054978389106122b957508495969783915f80516020612516833981519152965f52855203815f2055855f52805f2082815401905551908152a3565b825163391434e360e21b81526001600160a01b039190911660048201526024810189905260448101849052606490fd5b82604492519163658ec5dd60e11b835260048301526024820152fd5b8151631bff5b4560e31b8152306004820152602490fd5b6123339150853d8711610742576107348183611bc3565b5f61223f565b60405163ec442f0560e01b81525f6004820152602490fd5b604051634b637e8f60e11b81525f6004820152602490fd5b5f54604051632474521560e21b81527f97667070c54ef182b0f5858b034beac1b6f3089aa2d3188bb1e8929f4fa9b9296004820181905233602483015291602090829060449082906001600160a01b03165afa908115611b0e575f916123f1575b50156123d35750565b6044906040519063122994e360e11b82523360048301526024820152fd5b61240a915060203d602011610742576107348183611bc3565b5f6123ca565b80821161241b570390565b6040516314117d2960e11b8152600490fd5b61243681612102565b803b156124405750565b60405163b5cf5b8f60e01b81526001600160a01b039091166004820152602490fd5b60ff7ff0c57e16840df040f15088dc2f81fe391c3923bec73e23a9662efc9c229c6a005460401c161561249157565b604051631afcd79f60e31b8152600490fd5b6124ac81611f71565b6124b35750565b60405163daf49ab960e01b81526001600160a01b039091166004820152602490fdfe52c63247e1f47db19d5ce0460030c497f067ca4cebf71ba98eeadabe20bace0052c63247e1f47db19d5ce0460030c497f067ca4cebf71ba98eeadabe20bace02ddf252ad1be2c89b69c2b068fc378daa952ba7f163c4a11628f55a4df523b3efa164736f6c6343000818000a","linkReferences":{}},"methodIdentifiers":{"administrator()":"f53d0a8e","allowance(address,address)":"dd62ed3e","approve(address,uint256)":"095ea7b3","approveManager()":"b4c3ff63","asset()":"38d52e0f","balanceOf(address)":"70a08231","burn(address,uint256)":"9dc29fac","convertToAssets(uint256)":"07a2d13a","convertToShares(uint256)":"c6e6f592","decimals()":"313ce567","deposit(uint256,address)":"6e553f65","getCCIPAdmin()":"8fd6a6ac","getRate()":"679aefce","initialize(string,string,address,address)":"8f15b414","isBlacklisted(address)":"fe575a87","latestRoundData()":"feaf968c","lockShares(address,uint256)":"05fbf448","lockedShares(address)":"e336ac44","manager()":"481c6a75","maxDeposit(address)":"402d267d","maxRedeem(address)":"d905777e","mint(address,uint256)":"40c10f19","name()":"06fdde03","paused()":"5c975abb","previewDeposit(uint256)":"ef8b30f7","previewMint(uint256)":"b3d7f6b9","previewRedeem(uint256)":"4cdad506","previewWithdraw(uint256)":"0a28a477","rescueTokens(address,address,uint256)":"cea9d26f","setAdministrator(address)":"df8089ef","setNameAndSymbol(string,string)":"5a446215","spendAllowance(address,address,uint256)":"dd8aaa4f","symbol()":"95d89b41","totalAssets()":"01e1d114","totalSupply()":"18160ddd","transfer(address,uint256)":"a9059cbb","transferFrom(address,address,uint256)":"23b872dd","unlockShares(address,uint256)":"76467da0"},"id":62}